{
	"contracts/Calculator.sol": {
		"Calculator": {
			"abi": [
				{
					"inputs": [
						{
							"internalType": "uint128",
							"name": "num",
							"type": "uint128"
						}
					],
					"name": "add",
					"outputs": [],
					"stateMutability": "nonpayable",
					"type": "function"
				},
				{
					"inputs": [
						{
							"internalType": "uint128",
							"name": "num",
							"type": "uint128"
						}
					],
					"name": "divide",
					"outputs": [],
					"stateMutability": "nonpayable",
					"type": "function"
				},
				{
					"inputs": [],
					"name": "get",
					"outputs": [
						{
							"internalType": "uint128",
							"name": "",
							"type": "uint128"
						}
					],
					"stateMutability": "view",
					"type": "function"
				},
				{
					"inputs": [
						{
							"internalType": "uint128",
							"name": "num",
							"type": "uint128"
						}
					],
					"name": "multiply",
					"outputs": [],
					"stateMutability": "nonpayable",
					"type": "function"
				},
				{
					"inputs": [
						{
							"internalType": "uint128",
							"name": "num",
							"type": "uint128"
						}
					],
					"name": "subtract",
					"outputs": [],
					"stateMutability": "nonpayable",
					"type": "function"
				}
			],
			"devdoc": {
				"kind": "dev",
				"methods": {},
				"version": 1
			},
			"evm": {
				"assembly": "    /* \"contracts/Calculator.sol\":59:463  contract Calculator {... */\n  mstore(0x40, 0x80)\n    /* \"contracts/Calculator.sol\":102:103  0 */\n  0x00\n    /* \"contracts/Calculator.sol\":85:103  uint128 result = 0 */\n  dup1\n  exp(0x0100, 0x00)\n  dup2\n  sload\n  dup2\n  0xffffffffffffffffffffffffffffffff\n  mul\n  not\n  and\n  swap1\n  dup4\n  0xffffffffffffffffffffffffffffffff\n  and\n  mul\n  or\n  swap1\n  sstore\n  pop\n    /* \"contracts/Calculator.sol\":59:463  contract Calculator {... */\n  callvalue\n  dup1\n  iszero\n  tag_1\n  jumpi\n  0x00\n  dup1\n  revert\ntag_1:\n  pop\n  dataSize(sub_0)\n  dup1\n  dataOffset(sub_0)\n  0x00\n  codecopy\n  0x00\n  return\nstop\n\nsub_0: assembly {\n        /* \"contracts/Calculator.sol\":59:463  contract Calculator {... */\n      mstore(0x40, 0x80)\n      callvalue\n      dup1\n      iszero\n      tag_1\n      jumpi\n      0x00\n      dup1\n      revert\n    tag_1:\n      pop\n      jumpi(tag_2, lt(calldatasize, 0x04))\n      shr(0xe0, calldataload(0x00))\n      dup1\n      0x28d5b4c4\n      eq\n      tag_3\n      jumpi\n      dup1\n      0x43114db8\n      eq\n      tag_4\n      jumpi\n      dup1\n      0x6d4ce63c\n      eq\n      tag_5\n      jumpi\n      dup1\n      0x90a1703f\n      eq\n      tag_6\n      jumpi\n      dup1\n      0xd2bf8be9\n      eq\n      tag_7\n      jumpi\n    tag_2:\n      0x00\n      dup1\n      revert\n        /* \"contracts/Calculator.sol\":176:242  function subtract(uint128 num) public {... */\n    tag_3:\n      tag_8\n      0x04\n      dup1\n      calldatasize\n      sub\n      dup2\n      add\n      swap1\n      tag_9\n      swap2\n      swap1\n      tag_10\n      jump\t// in\n    tag_9:\n      tag_11\n      jump\t// in\n    tag_8:\n      stop\n        /* \"contracts/Calculator.sol\":110:171  function add(uint128 num) public {... */\n    tag_4:\n      tag_12\n      0x04\n      dup1\n      calldatasize\n      sub\n      dup2\n      add\n      swap1\n      tag_13\n      swap2\n      swap1\n      tag_10\n      jump\t// in\n    tag_13:\n      tag_14\n      jump\t// in\n    tag_12:\n      stop\n        /* \"contracts/Calculator.sol\":387:461  function get() public view returns (uint128){... */\n    tag_5:\n      tag_15\n      tag_16\n      jump\t// in\n    tag_15:\n      mload(0x40)\n      tag_17\n      swap2\n      swap1\n      tag_18\n      jump\t// in\n    tag_17:\n      mload(0x40)\n      dup1\n      swap2\n      sub\n      swap1\n      return\n        /* \"contracts/Calculator.sol\":247:313  function multiply(uint128 num) public {... */\n    tag_6:\n      tag_19\n      0x04\n      dup1\n      calldatasize\n      sub\n      dup2\n      add\n      swap1\n      tag_20\n      swap2\n      swap1\n      tag_10\n      jump\t// in\n    tag_20:\n      tag_21\n      jump\t// in\n    tag_19:\n      stop\n        /* \"contracts/Calculator.sol\":318:382  function divide(uint128 num) public {... */\n    tag_7:\n      tag_22\n      0x04\n      dup1\n      calldatasize\n      sub\n      dup2\n      add\n      swap1\n      tag_23\n      swap2\n      swap1\n      tag_10\n      jump\t// in\n    tag_23:\n      tag_24\n      jump\t// in\n    tag_22:\n      stop\n        /* \"contracts/Calculator.sol\":176:242  function subtract(uint128 num) public {... */\n    tag_11:\n        /* \"contracts/Calculator.sol\":232:235  num */\n      dup1\n        /* \"contracts/Calculator.sol\":224:230  result */\n      0x00\n      dup1\n        /* \"contracts/Calculator.sol\":224:235  result-=num */\n      dup3\n      dup3\n      dup3\n      swap1\n      sload\n      swap1\n      0x0100\n      exp\n      swap1\n      div\n      0xffffffffffffffffffffffffffffffff\n      and\n      tag_26\n      swap2\n      swap1\n      tag_27\n      jump\t// in\n    tag_26:\n      swap3\n      pop\n      0x0100\n      exp\n      dup2\n      sload\n      dup2\n      0xffffffffffffffffffffffffffffffff\n      mul\n      not\n      and\n      swap1\n      dup4\n      0xffffffffffffffffffffffffffffffff\n      and\n      mul\n      or\n      swap1\n      sstore\n      pop\n        /* \"contracts/Calculator.sol\":176:242  function subtract(uint128 num) public {... */\n      pop\n      jump\t// out\n        /* \"contracts/Calculator.sol\":110:171  function add(uint128 num) public {... */\n    tag_14:\n        /* \"contracts/Calculator.sol\":161:164  num */\n      dup1\n        /* \"contracts/Calculator.sol\":153:159  result */\n      0x00\n      dup1\n        /* \"contracts/Calculator.sol\":153:164  result+=num */\n      dup3\n      dup3\n      dup3\n      swap1\n      sload\n      swap1\n      0x0100\n      exp\n      swap1\n      div\n      0xffffffffffffffffffffffffffffffff\n      and\n      tag_29\n      swap2\n      swap1\n      tag_30\n      jump\t// in\n    tag_29:\n      swap3\n      pop\n      0x0100\n      exp\n      dup2\n      sload\n      dup2\n      0xffffffffffffffffffffffffffffffff\n      mul\n      not\n      and\n      swap1\n      dup4\n      0xffffffffffffffffffffffffffffffff\n      and\n      mul\n      or\n      swap1\n      sstore\n      pop\n        /* \"contracts/Calculator.sol\":110:171  function add(uint128 num) public {... */\n      pop\n      jump\t// out\n        /* \"contracts/Calculator.sol\":387:461  function get() public view returns (uint128){... */\n    tag_16:\n        /* \"contracts/Calculator.sol\":423:430  uint128 */\n      0x00\n        /* \"contracts/Calculator.sol\":448:454  result */\n      dup1\n      0x00\n      swap1\n      sload\n      swap1\n      0x0100\n      exp\n      swap1\n      div\n      0xffffffffffffffffffffffffffffffff\n      and\n        /* \"contracts/Calculator.sol\":441:454  return result */\n      swap1\n      pop\n        /* \"contracts/Calculator.sol\":387:461  function get() public view returns (uint128){... */\n      swap1\n      jump\t// out\n        /* \"contracts/Calculator.sol\":247:313  function multiply(uint128 num) public {... */\n    tag_21:\n        /* \"contracts/Calculator.sol\":303:306  num */\n      dup1\n        /* \"contracts/Calculator.sol\":295:301  result */\n      0x00\n      dup1\n        /* \"contracts/Calculator.sol\":295:306  result*=num */\n      dup3\n      dup3\n      dup3\n      swap1\n      sload\n      swap1\n      0x0100\n      exp\n      swap1\n      div\n      0xffffffffffffffffffffffffffffffff\n      and\n      tag_33\n      swap2\n      swap1\n      tag_34\n      jump\t// in\n    tag_33:\n      swap3\n      pop\n      0x0100\n      exp\n      dup2\n      sload\n      dup2\n      0xffffffffffffffffffffffffffffffff\n      mul\n      not\n      and\n      swap1\n      dup4\n      0xffffffffffffffffffffffffffffffff\n      and\n      mul\n      or\n      swap1\n      sstore\n      pop\n        /* \"contracts/Calculator.sol\":247:313  function multiply(uint128 num) public {... */\n      pop\n      jump\t// out\n        /* \"contracts/Calculator.sol\":318:382  function divide(uint128 num) public {... */\n    tag_24:\n        /* \"contracts/Calculator.sol\":372:375  num */\n      dup1\n        /* \"contracts/Calculator.sol\":364:370  result */\n      0x00\n      dup1\n        /* \"contracts/Calculator.sol\":364:375  result/=num */\n      dup3\n      dup3\n      dup3\n      swap1\n      sload\n      swap1\n      0x0100\n      exp\n      swap1\n      div\n      0xffffffffffffffffffffffffffffffff\n      and\n      tag_36\n      swap2\n      swap1\n      tag_37\n      jump\t// in\n    tag_36:\n      swap3\n      pop\n      0x0100\n      exp\n      dup2\n      sload\n      dup2\n      0xffffffffffffffffffffffffffffffff\n      mul\n      not\n      and\n      swap1\n      dup4\n      0xffffffffffffffffffffffffffffffff\n      and\n      mul\n      or\n      swap1\n      sstore\n      pop\n        /* \"contracts/Calculator.sol\":318:382  function divide(uint128 num) public {... */\n      pop\n      jump\t// out\n        /* \"#utility.yul\":88:205   */\n    tag_39:\n        /* \"#utility.yul\":197:198   */\n      0x00\n        /* \"#utility.yul\":194:195   */\n      dup1\n        /* \"#utility.yul\":187:199   */\n      revert\n        /* \"#utility.yul\":334:452   */\n    tag_41:\n        /* \"#utility.yul\":371:378   */\n      0x00\n        /* \"#utility.yul\":411:445   */\n      0xffffffffffffffffffffffffffffffff\n        /* \"#utility.yul\":404:409   */\n      dup3\n        /* \"#utility.yul\":400:446   */\n      and\n        /* \"#utility.yul\":389:446   */\n      swap1\n      pop\n        /* \"#utility.yul\":334:452   */\n      swap2\n      swap1\n      pop\n      jump\t// out\n        /* \"#utility.yul\":458:580   */\n    tag_42:\n        /* \"#utility.yul\":531:555   */\n      tag_53\n        /* \"#utility.yul\":549:554   */\n      dup2\n        /* \"#utility.yul\":531:555   */\n      tag_41\n      jump\t// in\n    tag_53:\n        /* \"#utility.yul\":524:529   */\n      dup2\n        /* \"#utility.yul\":521:556   */\n      eq\n        /* \"#utility.yul\":511:574   */\n      tag_54\n      jumpi\n        /* \"#utility.yul\":570:571   */\n      0x00\n        /* \"#utility.yul\":567:568   */\n      dup1\n        /* \"#utility.yul\":560:572   */\n      revert\n        /* \"#utility.yul\":511:574   */\n    tag_54:\n        /* \"#utility.yul\":458:580   */\n      pop\n      jump\t// out\n        /* \"#utility.yul\":586:725   */\n    tag_43:\n        /* \"#utility.yul\":632:637   */\n      0x00\n        /* \"#utility.yul\":670:676   */\n      dup2\n        /* \"#utility.yul\":657:677   */\n      calldataload\n        /* \"#utility.yul\":648:677   */\n      swap1\n      pop\n        /* \"#utility.yul\":686:719   */\n      tag_56\n        /* \"#utility.yul\":713:718   */\n      dup2\n        /* \"#utility.yul\":686:719   */\n      tag_42\n      jump\t// in\n    tag_56:\n        /* \"#utility.yul\":586:725   */\n      swap3\n      swap2\n      pop\n      pop\n      jump\t// out\n        /* \"#utility.yul\":731:1060   */\n    tag_10:\n        /* \"#utility.yul\":790:796   */\n      0x00\n        /* \"#utility.yul\":839:841   */\n      0x20\n        /* \"#utility.yul\":827:836   */\n      dup3\n        /* \"#utility.yul\":818:825   */\n      dup5\n        /* \"#utility.yul\":814:837   */\n      sub\n        /* \"#utility.yul\":810:842   */\n      slt\n        /* \"#utility.yul\":807:926   */\n      iszero\n      tag_58\n      jumpi\n        /* \"#utility.yul\":845:924   */\n      tag_59\n      tag_39\n      jump\t// in\n    tag_59:\n        /* \"#utility.yul\":807:926   */\n    tag_58:\n        /* \"#utility.yul\":965:966   */\n      0x00\n        /* \"#utility.yul\":990:1043   */\n      tag_60\n        /* \"#utility.yul\":1035:1042   */\n      dup5\n        /* \"#utility.yul\":1026:1032   */\n      dup3\n        /* \"#utility.yul\":1015:1024   */\n      dup6\n        /* \"#utility.yul\":1011:1033   */\n      add\n        /* \"#utility.yul\":990:1043   */\n      tag_43\n      jump\t// in\n    tag_60:\n        /* \"#utility.yul\":980:1043   */\n      swap2\n      pop\n        /* \"#utility.yul\":936:1053   */\n      pop\n        /* \"#utility.yul\":731:1060   */\n      swap3\n      swap2\n      pop\n      pop\n      jump\t// out\n        /* \"#utility.yul\":1066:1184   */\n    tag_44:\n        /* \"#utility.yul\":1153:1177   */\n      tag_62\n        /* \"#utility.yul\":1171:1176   */\n      dup2\n        /* \"#utility.yul\":1153:1177   */\n      tag_41\n      jump\t// in\n    tag_62:\n        /* \"#utility.yul\":1148:1151   */\n      dup3\n        /* \"#utility.yul\":1141:1178   */\n      mstore\n        /* \"#utility.yul\":1066:1184   */\n      pop\n      pop\n      jump\t// out\n        /* \"#utility.yul\":1190:1412   */\n    tag_18:\n        /* \"#utility.yul\":1283:1287   */\n      0x00\n        /* \"#utility.yul\":1321:1323   */\n      0x20\n        /* \"#utility.yul\":1310:1319   */\n      dup3\n        /* \"#utility.yul\":1306:1324   */\n      add\n        /* \"#utility.yul\":1298:1324   */\n      swap1\n      pop\n        /* \"#utility.yul\":1334:1405   */\n      tag_64\n        /* \"#utility.yul\":1402:1403   */\n      0x00\n        /* \"#utility.yul\":1391:1400   */\n      dup4\n        /* \"#utility.yul\":1387:1404   */\n      add\n        /* \"#utility.yul\":1378:1384   */\n      dup5\n        /* \"#utility.yul\":1334:1405   */\n      tag_44\n      jump\t// in\n    tag_64:\n        /* \"#utility.yul\":1190:1412   */\n      swap3\n      swap2\n      pop\n      pop\n      jump\t// out\n        /* \"#utility.yul\":1418:1598   */\n    tag_45:\n        /* \"#utility.yul\":1466:1543   */\n      0x4e487b7100000000000000000000000000000000000000000000000000000000\n        /* \"#utility.yul\":1463:1464   */\n      0x00\n        /* \"#utility.yul\":1456:1544   */\n      mstore\n        /* \"#utility.yul\":1563:1567   */\n      0x11\n        /* \"#utility.yul\":1560:1561   */\n      0x04\n        /* \"#utility.yul\":1553:1568   */\n      mstore\n        /* \"#utility.yul\":1587:1591   */\n      0x24\n        /* \"#utility.yul\":1584:1585   */\n      0x00\n        /* \"#utility.yul\":1577:1592   */\n      revert\n        /* \"#utility.yul\":1604:1831   */\n    tag_27:\n        /* \"#utility.yul\":1644:1648   */\n      0x00\n        /* \"#utility.yul\":1664:1684   */\n      tag_67\n        /* \"#utility.yul\":1682:1683   */\n      dup3\n        /* \"#utility.yul\":1664:1684   */\n      tag_41\n      jump\t// in\n    tag_67:\n        /* \"#utility.yul\":1659:1684   */\n      swap2\n      pop\n        /* \"#utility.yul\":1698:1718   */\n      tag_68\n        /* \"#utility.yul\":1716:1717   */\n      dup4\n        /* \"#utility.yul\":1698:1718   */\n      tag_41\n      jump\t// in\n    tag_68:\n        /* \"#utility.yul\":1693:1718   */\n      swap3\n      pop\n        /* \"#utility.yul\":1742:1743   */\n      dup3\n        /* \"#utility.yul\":1739:1740   */\n      dup3\n        /* \"#utility.yul\":1735:1744   */\n      sub\n        /* \"#utility.yul\":1727:1744   */\n      swap1\n      pop\n        /* \"#utility.yul\":1766:1800   */\n      0xffffffffffffffffffffffffffffffff\n        /* \"#utility.yul\":1760:1764   */\n      dup2\n        /* \"#utility.yul\":1757:1801   */\n      gt\n        /* \"#utility.yul\":1754:1824   */\n      iszero\n      tag_69\n      jumpi\n        /* \"#utility.yul\":1804:1822   */\n      tag_70\n      tag_45\n      jump\t// in\n    tag_70:\n        /* \"#utility.yul\":1754:1824   */\n    tag_69:\n        /* \"#utility.yul\":1604:1831   */\n      swap3\n      swap2\n      pop\n      pop\n      jump\t// out\n        /* \"#utility.yul\":1837:2061   */\n    tag_30:\n        /* \"#utility.yul\":1877:1880   */\n      0x00\n        /* \"#utility.yul\":1896:1916   */\n      tag_72\n        /* \"#utility.yul\":1914:1915   */\n      dup3\n        /* \"#utility.yul\":1896:1916   */\n      tag_41\n      jump\t// in\n    tag_72:\n        /* \"#utility.yul\":1891:1916   */\n      swap2\n      pop\n        /* \"#utility.yul\":1930:1950   */\n      tag_73\n        /* \"#utility.yul\":1948:1949   */\n      dup4\n        /* \"#utility.yul\":1930:1950   */\n      tag_41\n      jump\t// in\n    tag_73:\n        /* \"#utility.yul\":1925:1950   */\n      swap3\n      pop\n        /* \"#utility.yul\":1973:1974   */\n      dup3\n        /* \"#utility.yul\":1970:1971   */\n      dup3\n        /* \"#utility.yul\":1966:1975   */\n      add\n        /* \"#utility.yul\":1959:1975   */\n      swap1\n      pop\n        /* \"#utility.yul\":1996:2030   */\n      0xffffffffffffffffffffffffffffffff\n        /* \"#utility.yul\":1991:1994   */\n      dup2\n        /* \"#utility.yul\":1988:2031   */\n      gt\n        /* \"#utility.yul\":1985:2054   */\n      iszero\n      tag_74\n      jumpi\n        /* \"#utility.yul\":2034:2052   */\n      tag_75\n      tag_45\n      jump\t// in\n    tag_75:\n        /* \"#utility.yul\":1985:2054   */\n    tag_74:\n        /* \"#utility.yul\":1837:2061   */\n      swap3\n      swap2\n      pop\n      pop\n      jump\t// out\n        /* \"#utility.yul\":2067:2346   */\n    tag_34:\n        /* \"#utility.yul\":2107:2114   */\n      0x00\n        /* \"#utility.yul\":2130:2150   */\n      tag_77\n        /* \"#utility.yul\":2148:2149   */\n      dup3\n        /* \"#utility.yul\":2130:2150   */\n      tag_41\n      jump\t// in\n    tag_77:\n        /* \"#utility.yul\":2125:2150   */\n      swap2\n      pop\n        /* \"#utility.yul\":2164:2184   */\n      tag_78\n        /* \"#utility.yul\":2182:2183   */\n      dup4\n        /* \"#utility.yul\":2164:2184   */\n      tag_41\n      jump\t// in\n    tag_78:\n        /* \"#utility.yul\":2159:2184   */\n      swap3\n      pop\n        /* \"#utility.yul\":2219:2220   */\n      dup3\n        /* \"#utility.yul\":2216:2217   */\n      dup3\n        /* \"#utility.yul\":2212:2221   */\n      mul\n        /* \"#utility.yul\":2241:2271   */\n      tag_79\n        /* \"#utility.yul\":2259:2270   */\n      dup2\n        /* \"#utility.yul\":2241:2271   */\n      tag_41\n      jump\t// in\n    tag_79:\n        /* \"#utility.yul\":2230:2271   */\n      swap2\n      pop\n        /* \"#utility.yul\":2303:2314   */\n      dup1\n        /* \"#utility.yul\":2294:2301   */\n      dup3\n        /* \"#utility.yul\":2291:2315   */\n      eq\n        /* \"#utility.yul\":2281:2339   */\n      tag_80\n      jumpi\n        /* \"#utility.yul\":2319:2337   */\n      tag_81\n      tag_45\n      jump\t// in\n    tag_81:\n        /* \"#utility.yul\":2281:2339   */\n    tag_80:\n        /* \"#utility.yul\":2115:2346   */\n      pop\n        /* \"#utility.yul\":2067:2346   */\n      swap3\n      swap2\n      pop\n      pop\n      jump\t// out\n        /* \"#utility.yul\":2352:2532   */\n    tag_46:\n        /* \"#utility.yul\":2400:2477   */\n      0x4e487b7100000000000000000000000000000000000000000000000000000000\n        /* \"#utility.yul\":2397:2398   */\n      0x00\n        /* \"#utility.yul\":2390:2478   */\n      mstore\n        /* \"#utility.yul\":2497:2501   */\n      0x12\n        /* \"#utility.yul\":2494:2495   */\n      0x04\n        /* \"#utility.yul\":2487:2502   */\n      mstore\n        /* \"#utility.yul\":2521:2525   */\n      0x24\n        /* \"#utility.yul\":2518:2519   */\n      0x00\n        /* \"#utility.yul\":2511:2526   */\n      revert\n        /* \"#utility.yul\":2538:2723   */\n    tag_37:\n        /* \"#utility.yul\":2578:2579   */\n      0x00\n        /* \"#utility.yul\":2595:2615   */\n      tag_84\n        /* \"#utility.yul\":2613:2614   */\n      dup3\n        /* \"#utility.yul\":2595:2615   */\n      tag_41\n      jump\t// in\n    tag_84:\n        /* \"#utility.yul\":2590:2615   */\n      swap2\n      pop\n        /* \"#utility.yul\":2629:2649   */\n      tag_85\n        /* \"#utility.yul\":2647:2648   */\n      dup4\n        /* \"#utility.yul\":2629:2649   */\n      tag_41\n      jump\t// in\n    tag_85:\n        /* \"#utility.yul\":2624:2649   */\n      swap3\n      pop\n        /* \"#utility.yul\":2668:2669   */\n      dup3\n        /* \"#utility.yul\":2658:2693   */\n      tag_86\n      jumpi\n        /* \"#utility.yul\":2673:2691   */\n      tag_87\n      tag_46\n      jump\t// in\n    tag_87:\n        /* \"#utility.yul\":2658:2693   */\n    tag_86:\n        /* \"#utility.yul\":2715:2716   */\n      dup3\n        /* \"#utility.yul\":2712:2713   */\n      dup3\n        /* \"#utility.yul\":2708:2717   */\n      div\n        /* \"#utility.yul\":2703:2717   */\n      swap1\n      pop\n        /* \"#utility.yul\":2538:2723   */\n      swap3\n      swap2\n      pop\n      pop\n      jump\t// out\n\n    auxdata: 0xa2646970667358221220f4b3eb48fca39f6b7252d0a88e2c5ffde2e42ed7eed469448a069b99570dcceb64736f6c634300081a0033\n}\n",
				"bytecode": {
					"linkReferences": {},
					"object": "60806040525f805f6101000a8154816fffffffffffffffffffffffffffffffff02191690836fffffffffffffffffffffffffffffffff1602179055503480156045575f80fd5b506104b8806100535f395ff3fe608060405234801561000f575f80fd5b5060043610610055575f3560e01c806328d5b4c41461005957806343114db8146100755780636d4ce63c1461009157806390a1703f146100af578063d2bf8be9146100cb575b5f80fd5b610073600480360381019061006e91906102e3565b6100e7565b005b61008f600480360381019061008a91906102e3565b61014b565b005b6100996101af565b6040516100a6919061031d565b60405180910390f35b6100c960048036038101906100c491906102e3565b6101d2565b005b6100e560048036038101906100e091906102e3565b610236565b005b805f808282829054906101000a90046fffffffffffffffffffffffffffffffff166101129190610363565b92506101000a8154816fffffffffffffffffffffffffffffffff02191690836fffffffffffffffffffffffffffffffff16021790555050565b805f808282829054906101000a90046fffffffffffffffffffffffffffffffff1661017691906103a6565b92506101000a8154816fffffffffffffffffffffffffffffffff02191690836fffffffffffffffffffffffffffffffff16021790555050565b5f805f9054906101000a90046fffffffffffffffffffffffffffffffff16905090565b805f808282829054906101000a90046fffffffffffffffffffffffffffffffff166101fd91906103e9565b92506101000a8154816fffffffffffffffffffffffffffffffff02191690836fffffffffffffffffffffffffffffffff16021790555050565b805f808282829054906101000a90046fffffffffffffffffffffffffffffffff166102619190610452565b92506101000a8154816fffffffffffffffffffffffffffffffff02191690836fffffffffffffffffffffffffffffffff16021790555050565b5f80fd5b5f6fffffffffffffffffffffffffffffffff82169050919050565b6102c28161029e565b81146102cc575f80fd5b50565b5f813590506102dd816102b9565b92915050565b5f602082840312156102f8576102f761029a565b5b5f610305848285016102cf565b91505092915050565b6103178161029e565b82525050565b5f6020820190506103305f83018461030e565b92915050565b7f4e487b71000000000000000000000000000000000000000000000000000000005f52601160045260245ffd5b5f61036d8261029e565b91506103788361029e565b925082820390506fffffffffffffffffffffffffffffffff8111156103a05761039f610336565b5b92915050565b5f6103b08261029e565b91506103bb8361029e565b925082820190506fffffffffffffffffffffffffffffffff8111156103e3576103e2610336565b5b92915050565b5f6103f38261029e565b91506103fe8361029e565b925082820261040c8161029e565b915080821461041e5761041d610336565b5b5092915050565b7f4e487b71000000000000000000000000000000000000000000000000000000005f52601260045260245ffd5b5f61045c8261029e565b91506104678361029e565b92508261047757610476610425565b5b82820490509291505056fea2646970667358221220f4b3eb48fca39f6b7252d0a88e2c5ffde2e42ed7eed469448a069b99570dcceb64736f6c634300081a0033",
					"opcodes": "PUSH1 0x80 PUSH1 0x40 MSTORE PUSH0 DUP1 PUSH0 PUSH2 0x100 EXP DUP2 SLOAD DUP2 PUSH16 0xFFFFFFFFFFFFFFFFFFFFFFFFFFFFFFFF MUL NOT AND SWAP1 DUP4 PUSH16 0xFFFFFFFFFFFFFFFFFFFFFFFFFFFFFFFF AND MUL OR SWAP1 SSTORE POP CALLVALUE DUP1 ISZERO PUSH1 0x45 JUMPI PUSH0 DUP1 REVERT JUMPDEST POP PUSH2 0x4B8 DUP1 PUSH2 0x53 PUSH0 CODECOPY PUSH0 RETURN INVALID PUSH1 0x80 PUSH1 0x40 MSTORE CALLVALUE DUP1 ISZERO PUSH2 0xF JUMPI PUSH0 DUP1 REVERT JUMPDEST POP PUSH1 0x4 CALLDATASIZE LT PUSH2 0x55 JUMPI PUSH0 CALLDATALOAD PUSH1 0xE0 SHR DUP1 PUSH4 0x28D5B4C4 EQ PUSH2 0x59 JUMPI DUP1 PUSH4 0x43114DB8 EQ PUSH2 0x75 JUMPI DUP1 PUSH4 0x6D4CE63C EQ PUSH2 0x91 JUMPI DUP1 PUSH4 0x90A1703F EQ PUSH2 0xAF JUMPI DUP1 PUSH4 0xD2BF8BE9 EQ PUSH2 0xCB JUMPI JUMPDEST PUSH0 DUP1 REVERT JUMPDEST PUSH2 0x73 PUSH1 0x4 DUP1 CALLDATASIZE SUB DUP2 ADD SWAP1 PUSH2 0x6E SWAP2 SWAP1 PUSH2 0x2E3 JUMP JUMPDEST PUSH2 0xE7 JUMP JUMPDEST STOP JUMPDEST PUSH2 0x8F PUSH1 0x4 DUP1 CALLDATASIZE SUB DUP2 ADD SWAP1 PUSH2 0x8A SWAP2 SWAP1 PUSH2 0x2E3 JUMP JUMPDEST PUSH2 0x14B JUMP JUMPDEST STOP JUMPDEST PUSH2 0x99 PUSH2 0x1AF JUMP JUMPDEST PUSH1 0x40 MLOAD PUSH2 0xA6 SWAP2 SWAP1 PUSH2 0x31D JUMP JUMPDEST PUSH1 0x40 MLOAD DUP1 SWAP2 SUB SWAP1 RETURN JUMPDEST PUSH2 0xC9 PUSH1 0x4 DUP1 CALLDATASIZE SUB DUP2 ADD SWAP1 PUSH2 0xC4 SWAP2 SWAP1 PUSH2 0x2E3 JUMP JUMPDEST PUSH2 0x1D2 JUMP JUMPDEST STOP JUMPDEST PUSH2 0xE5 PUSH1 0x4 DUP1 CALLDATASIZE SUB DUP2 ADD SWAP1 PUSH2 0xE0 SWAP2 SWAP1 PUSH2 0x2E3 JUMP JUMPDEST PUSH2 0x236 JUMP JUMPDEST STOP JUMPDEST DUP1 PUSH0 DUP1 DUP3 DUP3 DUP3 SWAP1 SLOAD SWAP1 PUSH2 0x100 EXP SWAP1 DIV PUSH16 0xFFFFFFFFFFFFFFFFFFFFFFFFFFFFFFFF AND PUSH2 0x112 SWAP2 SWAP1 PUSH2 0x363 JUMP JUMPDEST SWAP3 POP PUSH2 0x100 EXP DUP2 SLOAD DUP2 PUSH16 0xFFFFFFFFFFFFFFFFFFFFFFFFFFFFFFFF MUL NOT AND SWAP1 DUP4 PUSH16 0xFFFFFFFFFFFFFFFFFFFFFFFFFFFFFFFF AND MUL OR SWAP1 SSTORE POP POP JUMP JUMPDEST DUP1 PUSH0 DUP1 DUP3 DUP3 DUP3 SWAP1 SLOAD SWAP1 PUSH2 0x100 EXP SWAP1 DIV PUSH16 0xFFFFFFFFFFFFFFFFFFFFFFFFFFFFFFFF AND PUSH2 0x176 SWAP2 SWAP1 PUSH2 0x3A6 JUMP JUMPDEST SWAP3 POP PUSH2 0x100 EXP DUP2 SLOAD DUP2 PUSH16 0xFFFFFFFFFFFFFFFFFFFFFFFFFFFFFFFF MUL NOT AND SWAP1 DUP4 PUSH16 0xFFFFFFFFFFFFFFFFFFFFFFFFFFFFFFFF AND MUL OR SWAP1 SSTORE POP POP JUMP JUMPDEST PUSH0 DUP1 PUSH0 SWAP1 SLOAD SWAP1 PUSH2 0x100 EXP SWAP1 DIV PUSH16 0xFFFFFFFFFFFFFFFFFFFFFFFFFFFFFFFF AND SWAP1 POP SWAP1 JUMP JUMPDEST DUP1 PUSH0 DUP1 DUP3 DUP3 DUP3 SWAP1 SLOAD SWAP1 PUSH2 0x100 EXP SWAP1 DIV PUSH16 0xFFFFFFFFFFFFFFFFFFFFFFFFFFFFFFFF AND PUSH2 0x1FD SWAP2 SWAP1 PUSH2 0x3E9 JUMP JUMPDEST SWAP3 POP PUSH2 0x100 EXP DUP2 SLOAD DUP2 PUSH16 0xFFFFFFFFFFFFFFFFFFFFFFFFFFFFFFFF MUL NOT AND SWAP1 DUP4 PUSH16 0xFFFFFFFFFFFFFFFFFFFFFFFFFFFFFFFF AND MUL OR SWAP1 SSTORE POP POP JUMP JUMPDEST DUP1 PUSH0 DUP1 DUP3 DUP3 DUP3 SWAP1 SLOAD SWAP1 PUSH2 0x100 EXP SWAP1 DIV PUSH16 0xFFFFFFFFFFFFFFFFFFFFFFFFFFFFFFFF AND PUSH2 0x261 SWAP2 SWAP1 PUSH2 0x452 JUMP JUMPDEST SWAP3 POP PUSH2 0x100 EXP DUP2 SLOAD DUP2 PUSH16 0xFFFFFFFFFFFFFFFFFFFFFFFFFFFFFFFF MUL NOT AND SWAP1 DUP4 PUSH16 0xFFFFFFFFFFFFFFFFFFFFFFFFFFFFFFFF AND MUL OR SWAP1 SSTORE POP POP JUMP JUMPDEST PUSH0 DUP1 REVERT JUMPDEST PUSH0 PUSH16 0xFFFFFFFFFFFFFFFFFFFFFFFFFFFFFFFF DUP3 AND SWAP1 POP SWAP2 SWAP1 POP JUMP JUMPDEST PUSH2 0x2C2 DUP2 PUSH2 0x29E JUMP JUMPDEST DUP2 EQ PUSH2 0x2CC JUMPI PUSH0 DUP1 REVERT JUMPDEST POP JUMP JUMPDEST PUSH0 DUP2 CALLDATALOAD SWAP1 POP PUSH2 0x2DD DUP2 PUSH2 0x2B9 JUMP JUMPDEST SWAP3 SWAP2 POP POP JUMP JUMPDEST PUSH0 PUSH1 0x20 DUP3 DUP5 SUB SLT ISZERO PUSH2 0x2F8 JUMPI PUSH2 0x2F7 PUSH2 0x29A JUMP JUMPDEST JUMPDEST PUSH0 PUSH2 0x305 DUP5 DUP3 DUP6 ADD PUSH2 0x2CF JUMP JUMPDEST SWAP2 POP POP SWAP3 SWAP2 POP POP JUMP JUMPDEST PUSH2 0x317 DUP2 PUSH2 0x29E JUMP JUMPDEST DUP3 MSTORE POP POP JUMP JUMPDEST PUSH0 PUSH1 0x20 DUP3 ADD SWAP1 POP PUSH2 0x330 PUSH0 DUP4 ADD DUP5 PUSH2 0x30E JUMP JUMPDEST SWAP3 SWAP2 POP POP JUMP JUMPDEST PUSH32 0x4E487B7100000000000000000000000000000000000000000000000000000000 PUSH0 MSTORE PUSH1 0x11 PUSH1 0x4 MSTORE PUSH1 0x24 PUSH0 REVERT JUMPDEST PUSH0 PUSH2 0x36D DUP3 PUSH2 0x29E JUMP JUMPDEST SWAP2 POP PUSH2 0x378 DUP4 PUSH2 0x29E JUMP JUMPDEST SWAP3 POP DUP3 DUP3 SUB SWAP1 POP PUSH16 0xFFFFFFFFFFFFFFFFFFFFFFFFFFFFFFFF DUP2 GT ISZERO PUSH2 0x3A0 JUMPI PUSH2 0x39F PUSH2 0x336 JUMP JUMPDEST JUMPDEST SWAP3 SWAP2 POP POP JUMP JUMPDEST PUSH0 PUSH2 0x3B0 DUP3 PUSH2 0x29E JUMP JUMPDEST SWAP2 POP PUSH2 0x3BB DUP4 PUSH2 0x29E JUMP JUMPDEST SWAP3 POP DUP3 DUP3 ADD SWAP1 POP PUSH16 0xFFFFFFFFFFFFFFFFFFFFFFFFFFFFFFFF DUP2 GT ISZERO PUSH2 0x3E3 JUMPI PUSH2 0x3E2 PUSH2 0x336 JUMP JUMPDEST JUMPDEST SWAP3 SWAP2 POP POP JUMP JUMPDEST PUSH0 PUSH2 0x3F3 DUP3 PUSH2 0x29E JUMP JUMPDEST SWAP2 POP PUSH2 0x3FE DUP4 PUSH2 0x29E JUMP JUMPDEST SWAP3 POP DUP3 DUP3 MUL PUSH2 0x40C DUP2 PUSH2 0x29E JUMP JUMPDEST SWAP2 POP DUP1 DUP3 EQ PUSH2 0x41E JUMPI PUSH2 0x41D PUSH2 0x336 JUMP JUMPDEST JUMPDEST POP SWAP3 SWAP2 POP POP JUMP JUMPDEST PUSH32 0x4E487B7100000000000000000000000000000000000000000000000000000000 PUSH0 MSTORE PUSH1 0x12 PUSH1 0x4 MSTORE PUSH1 0x24 PUSH0 REVERT JUMPDEST PUSH0 PUSH2 0x45C DUP3 PUSH2 0x29E JUMP JUMPDEST SWAP2 POP PUSH2 0x467 DUP4 PUSH2 0x29E JUMP JUMPDEST SWAP3 POP DUP3 PUSH2 0x477 JUMPI PUSH2 0x476 PUSH2 0x425 JUMP JUMPDEST JUMPDEST DUP3 DUP3 DIV SWAP1 POP SWAP3 SWAP2 POP POP JUMP INVALID LOG2 PUSH5 0x6970667358 0x22 SLT KECCAK256 DELEGATECALL 0xB3 0xEB BASEFEE 0xFC LOG3 SWAP16 PUSH12 0x7252D0A88E2C5FFDE2E42ED7 0xEE 0xD4 PUSH10 0x448A069B99570DCCEB64 PUSH20 0x6F6C634300081A00330000000000000000000000 "
				},
				"gasEstimates": {
					"creation": {
						"codeDepositCost": "241600",
						"executionCost": "24544",
						"totalCost": "266144"
					},
					"external": {
						"add(uint128)": "infinite",
						"divide(uint128)": "infinite",
						"get()": "2495",
						"multiply(uint128)": "infinite",
						"subtract(uint128)": "infinite"
					}
				},
				"methodIdentifiers": {
					"add(uint128)": "43114db8",
					"divide(uint128)": "d2bf8be9",
					"get()": "6d4ce63c",
					"multiply(uint128)": "90a1703f",
					"subtract(uint128)": "28d5b4c4"
				}
			},
			"storageLayout": {
				"storage": [
					{
						"astId": 4,
						"contract": "contracts/Calculator.sol:Calculator",
						"label": "result",
						"offset": 0,
						"slot": "0",
						"type": "t_uint128"
					}
				],
				"types": {
					"t_uint128": {
						"encoding": "inplace",
						"label": "uint128",
						"numberOfBytes": "16"
					}
				}
			},
			"userdoc": {
				"kind": "user",
				"methods": {},
				"version": 1
			}
		}
	}
}