{
	"contracts/test_viewing.sol": {
		"test_viewing": {
			"abi": [
				{
					"inputs": [
						{
							"internalType": "string",
							"name": "_tweet",
							"type": "string"
						}
					],
					"name": "addTweet",
					"outputs": [],
					"stateMutability": "nonpayable",
					"type": "function"
				},
				{
					"inputs": [
						{
							"internalType": "address",
							"name": "_author",
							"type": "address"
						},
						{
							"internalType": "uint256",
							"name": "index",
							"type": "uint256"
						}
					],
					"name": "getLikes",
					"outputs": [
						{
							"internalType": "uint256",
							"name": "",
							"type": "uint256"
						}
					],
					"stateMutability": "view",
					"type": "function"
				},
				{
					"inputs": [
						{
							"internalType": "address",
							"name": "_author",
							"type": "address"
						},
						{
							"internalType": "uint256",
							"name": "index",
							"type": "uint256"
						}
					],
					"name": "like",
					"outputs": [],
					"stateMutability": "nonpayable",
					"type": "function"
				},
				{
					"inputs": [
						{
							"internalType": "address",
							"name": "",
							"type": "address"
						},
						{
							"internalType": "uint256",
							"name": "",
							"type": "uint256"
						}
					],
					"name": "tweets",
					"outputs": [
						{
							"internalType": "address",
							"name": "author",
							"type": "address"
						},
						{
							"internalType": "string",
							"name": "content",
							"type": "string"
						},
						{
							"internalType": "uint256",
							"name": "timestamp",
							"type": "uint256"
						},
						{
							"internalType": "uint256",
							"name": "likes",
							"type": "uint256"
						}
					],
					"stateMutability": "view",
					"type": "function"
				}
			],
			"devdoc": {
				"kind": "dev",
				"methods": {},
				"version": 1
			},
			"evm": {
				"assembly": "    /* \"contracts/test_viewing.sol\":59:1071  contract test_viewing {... */\n  mstore(0x40, 0x80)\n  callvalue\n  dup1\n  iszero\n  tag_1\n  jumpi\n  0x00\n  dup1\n  revert\ntag_1:\n  pop\n  dataSize(sub_0)\n  dup1\n  dataOffset(sub_0)\n  0x00\n  codecopy\n  0x00\n  return\nstop\n\nsub_0: assembly {\n        /* \"contracts/test_viewing.sol\":59:1071  contract test_viewing {... */\n      mstore(0x40, 0x80)\n      callvalue\n      dup1\n      iszero\n      tag_1\n      jumpi\n      0x00\n      dup1\n      revert\n    tag_1:\n      pop\n      jumpi(tag_2, lt(calldatasize, 0x04))\n      shr(0xe0, calldataload(0x00))\n      dup1\n      0x05a1b4a9\n      eq\n      tag_3\n      jumpi\n      dup1\n      0x4f3cb3cf\n      eq\n      tag_4\n      jumpi\n      dup1\n      0x59ee12bc\n      eq\n      tag_5\n      jumpi\n      dup1\n      0xe4626c8f\n      eq\n      tag_6\n      jumpi\n    tag_2:\n      0x00\n      dup1\n      revert\n        /* \"contracts/test_viewing.sol\":87:126  mapping(address=>Tweet[]) public tweets */\n    tag_3:\n      tag_7\n      0x04\n      dup1\n      calldatasize\n      sub\n      dup2\n      add\n      swap1\n      tag_8\n      swap2\n      swap1\n      tag_9\n      jump\t// in\n    tag_8:\n      tag_10\n      jump\t// in\n    tag_7:\n      mload(0x40)\n      tag_11\n      swap5\n      swap4\n      swap3\n      swap2\n      swap1\n      tag_12\n      jump\t// in\n    tag_11:\n      mload(0x40)\n      dup1\n      swap2\n      sub\n      swap1\n      return\n        /* \"contracts/test_viewing.sol\":937:1069  function getLikes(address _author, uint256 index) public view returns (uint256) {... */\n    tag_4:\n      tag_13\n      0x04\n      dup1\n      calldatasize\n      sub\n      dup2\n      add\n      swap1\n      tag_14\n      swap2\n      swap1\n      tag_9\n      jump\t// in\n    tag_14:\n      tag_15\n      jump\t// in\n    tag_13:\n      mload(0x40)\n      tag_16\n      swap2\n      swap1\n      tag_17\n      jump\t// in\n    tag_16:\n      mload(0x40)\n      dup1\n      swap2\n      sub\n      swap1\n      return\n        /* \"contracts/test_viewing.sol\":295:612  function addTweet(string memory _tweet) public{... */\n    tag_5:\n      tag_18\n      0x04\n      dup1\n      calldatasize\n      sub\n      dup2\n      add\n      swap1\n      tag_19\n      swap2\n      swap1\n      tag_20\n      jump\t// in\n    tag_19:\n      tag_21\n      jump\t// in\n    tag_18:\n      stop\n        /* \"contracts/test_viewing.sol\":617:932  function like(address _author, uint256 index) public {... */\n    tag_6:\n      tag_22\n      0x04\n      dup1\n      calldatasize\n      sub\n      dup2\n      add\n      swap1\n      tag_23\n      swap2\n      swap1\n      tag_9\n      jump\t// in\n    tag_23:\n      tag_24\n      jump\t// in\n    tag_22:\n      stop\n        /* \"contracts/test_viewing.sol\":87:126  mapping(address=>Tweet[]) public tweets */\n    tag_10:\n      mstore(0x20, 0x00)\n      dup2\n      0x00\n      mstore\n      keccak256(0x00, 0x40)\n      dup2\n      dup2\n      sload\n      dup2\n      lt\n      tag_25\n      jumpi\n      0x00\n      dup1\n      revert\n    tag_25:\n      swap1\n      0x00\n      mstore\n      keccak256(0x00, 0x20)\n      swap1\n      0x05\n      mul\n      add\n      0x00\n      swap2\n      pop\n      swap2\n      pop\n      pop\n      dup1\n      0x00\n      add\n      0x00\n      swap1\n      sload\n      swap1\n      0x0100\n      exp\n      swap1\n      div\n      0xffffffffffffffffffffffffffffffffffffffff\n      and\n      swap1\n      dup1\n      0x01\n      add\n      dup1\n      sload\n      tag_27\n      swap1\n      tag_28\n      jump\t// in\n    tag_27:\n      dup1\n      0x1f\n      add\n      0x20\n      dup1\n      swap2\n      div\n      mul\n      0x20\n      add\n      mload(0x40)\n      swap1\n      dup2\n      add\n      0x40\n      mstore\n      dup1\n      swap3\n      swap2\n      swap1\n      dup2\n      dup2\n      mstore\n      0x20\n      add\n      dup3\n      dup1\n      sload\n      tag_29\n      swap1\n      tag_28\n      jump\t// in\n    tag_29:\n      dup1\n      iszero\n      tag_30\n      jumpi\n      dup1\n      0x1f\n      lt\n      tag_31\n      jumpi\n      0x0100\n      dup1\n      dup4\n      sload\n      div\n      mul\n      dup4\n      mstore\n      swap2\n      0x20\n      add\n      swap2\n      jump(tag_30)\n    tag_31:\n      dup3\n      add\n      swap2\n      swap1\n      0x00\n      mstore\n      keccak256(0x00, 0x20)\n      swap1\n    tag_32:\n      dup2\n      sload\n      dup2\n      mstore\n      swap1\n      0x01\n      add\n      swap1\n      0x20\n      add\n      dup1\n      dup4\n      gt\n      tag_32\n      jumpi\n      dup3\n      swap1\n      sub\n      0x1f\n      and\n      dup3\n      add\n      swap2\n    tag_30:\n      pop\n      pop\n      pop\n      pop\n      pop\n      swap1\n      dup1\n      0x02\n      add\n      sload\n      swap1\n      dup1\n      0x04\n      add\n      sload\n      swap1\n      pop\n      dup5\n      jump\t// out\n        /* \"contracts/test_viewing.sol\":937:1069  function getLikes(address _author, uint256 index) public view returns (uint256) {... */\n    tag_15:\n        /* \"contracts/test_viewing.sol\":1008:1015  uint256 */\n      0x00\n        /* \"contracts/test_viewing.sol\":1034:1040  tweets */\n      dup1\n        /* \"contracts/test_viewing.sol\":1034:1049  tweets[_author] */\n      0x00\n        /* \"contracts/test_viewing.sol\":1041:1048  _author */\n      dup5\n        /* \"contracts/test_viewing.sol\":1034:1049  tweets[_author] */\n      0xffffffffffffffffffffffffffffffffffffffff\n      and\n      0xffffffffffffffffffffffffffffffffffffffff\n      and\n      dup2\n      mstore\n      0x20\n      add\n      swap1\n      dup2\n      mstore\n      0x20\n      add\n      0x00\n      keccak256\n        /* \"contracts/test_viewing.sol\":1050:1055  index */\n      dup3\n        /* \"contracts/test_viewing.sol\":1034:1056  tweets[_author][index] */\n      dup2\n      sload\n      dup2\n      lt\n      tag_34\n      jumpi\n      tag_35\n      tag_36\n      jump\t// in\n    tag_35:\n    tag_34:\n      swap1\n      0x00\n      mstore\n      keccak256(0x00, 0x20)\n      swap1\n      0x05\n      mul\n      add\n        /* \"contracts/test_viewing.sol\":1034:1062  tweets[_author][index].likes */\n      0x04\n      add\n      sload\n        /* \"contracts/test_viewing.sol\":1027:1062  return tweets[_author][index].likes */\n      swap1\n      pop\n        /* \"contracts/test_viewing.sol\":937:1069  function getLikes(address _author, uint256 index) public view returns (uint256) {... */\n      swap3\n      swap2\n      pop\n      pop\n      jump\t// out\n        /* \"contracts/test_viewing.sol\":295:612  function addTweet(string memory _tweet) public{... */\n    tag_21:\n        /* \"contracts/test_viewing.sol\":351:357  tweets */\n      0x00\n        /* \"contracts/test_viewing.sol\":351:369  tweets[msg.sender] */\n      dup1\n        /* \"contracts/test_viewing.sol\":358:368  msg.sender */\n      caller\n        /* \"contracts/test_viewing.sol\":351:369  tweets[msg.sender] */\n      0xffffffffffffffffffffffffffffffffffffffff\n      and\n      0xffffffffffffffffffffffffffffffffffffffff\n      and\n      dup2\n      mstore\n      0x20\n      add\n      swap1\n      dup2\n      mstore\n      0x20\n      add\n      0x00\n      keccak256\n        /* \"contracts/test_viewing.sol\":351:376  tweets[msg.sender].push() */\n      0x01\n      dup2\n      0x01\n      dup2\n      sload\n      add\n      dup1\n      dup3\n      sstore\n      dup1\n      swap2\n      pop\n      pop\n      sub\n      swap1\n      0x00\n      mstore\n      keccak256(0x00, 0x20)\n      swap1\n      pop\n      pop\n        /* \"contracts/test_viewing.sol\":386:408  Tweet storage newTweet */\n      0x00\n        /* \"contracts/test_viewing.sol\":411:417  tweets */\n      dup1\n        /* \"contracts/test_viewing.sol\":411:429  tweets[msg.sender] */\n      0x00\n        /* \"contracts/test_viewing.sol\":418:428  msg.sender */\n      caller\n        /* \"contracts/test_viewing.sol\":411:429  tweets[msg.sender] */\n      0xffffffffffffffffffffffffffffffffffffffff\n      and\n      0xffffffffffffffffffffffffffffffffffffffff\n      and\n      dup2\n      mstore\n      0x20\n      add\n      swap1\n      dup2\n      mstore\n      0x20\n      add\n      0x00\n      keccak256\n        /* \"contracts/test_viewing.sol\":456:457  1 */\n      0x01\n        /* \"contracts/test_viewing.sol\":430:436  tweets */\n      0x00\n        /* \"contracts/test_viewing.sol\":430:448  tweets[msg.sender] */\n      dup1\n        /* \"contracts/test_viewing.sol\":437:447  msg.sender */\n      caller\n        /* \"contracts/test_viewing.sol\":430:448  tweets[msg.sender] */\n      0xffffffffffffffffffffffffffffffffffffffff\n      and\n      0xffffffffffffffffffffffffffffffffffffffff\n      and\n      dup2\n      mstore\n      0x20\n      add\n      swap1\n      dup2\n      mstore\n      0x20\n      add\n      0x00\n      keccak256\n        /* \"contracts/test_viewing.sol\":430:455  tweets[msg.sender].length */\n      dup1\n      sload\n      swap1\n      pop\n        /* \"contracts/test_viewing.sol\":430:457  tweets[msg.sender].length-1 */\n      tag_40\n      swap2\n      swap1\n      tag_41\n      jump\t// in\n    tag_40:\n        /* \"contracts/test_viewing.sol\":411:458  tweets[msg.sender][tweets[msg.sender].length-1] */\n      dup2\n      sload\n      dup2\n      lt\n      tag_42\n      jumpi\n      tag_43\n      tag_36\n      jump\t// in\n    tag_43:\n    tag_42:\n      swap1\n      0x00\n      mstore\n      keccak256(0x00, 0x20)\n      swap1\n      0x05\n      mul\n      add\n        /* \"contracts/test_viewing.sol\":386:458  Tweet storage newTweet = tweets[msg.sender][tweets[msg.sender].length-1] */\n      swap1\n      pop\n        /* \"contracts/test_viewing.sol\":486:496  msg.sender */\n      caller\n        /* \"contracts/test_viewing.sol\":468:476  newTweet */\n      dup2\n        /* \"contracts/test_viewing.sol\":468:483  newTweet.author */\n      0x00\n      add\n      0x00\n        /* \"contracts/test_viewing.sol\":468:496  newTweet.author = msg.sender */\n      0x0100\n      exp\n      dup2\n      sload\n      dup2\n      0xffffffffffffffffffffffffffffffffffffffff\n      mul\n      not\n      and\n      swap1\n      dup4\n      0xffffffffffffffffffffffffffffffffffffffff\n      and\n      mul\n      or\n      swap1\n      sstore\n      pop\n        /* \"contracts/test_viewing.sol\":525:531  _tweet */\n      dup2\n        /* \"contracts/test_viewing.sol\":506:514  newTweet */\n      dup2\n        /* \"contracts/test_viewing.sol\":506:522  newTweet.content */\n      0x01\n      add\n        /* \"contracts/test_viewing.sol\":506:531  newTweet.content = _tweet */\n      swap1\n      dup2\n      tag_45\n      swap2\n      swap1\n      tag_46\n      jump\t// in\n    tag_45:\n      pop\n        /* \"contracts/test_viewing.sol\":558:559  0 */\n      0x00\n        /* \"contracts/test_viewing.sol\":541:549  newTweet */\n      dup2\n        /* \"contracts/test_viewing.sol\":541:555  newTweet.likes */\n      0x04\n      add\n        /* \"contracts/test_viewing.sol\":541:559  newTweet.likes = 0 */\n      dup2\n      swap1\n      sstore\n      pop\n        /* \"contracts/test_viewing.sol\":590:605  block.timestamp */\n      timestamp\n        /* \"contracts/test_viewing.sol\":569:577  newTweet */\n      dup2\n        /* \"contracts/test_viewing.sol\":569:587  newTweet.timestamp */\n      0x02\n      add\n        /* \"contracts/test_viewing.sol\":569:605  newTweet.timestamp = block.timestamp */\n      dup2\n      swap1\n      sstore\n      pop\n        /* \"contracts/test_viewing.sol\":341:612  {... */\n      pop\n        /* \"contracts/test_viewing.sol\":295:612  function addTweet(string memory _tweet) public{... */\n      pop\n      jump\t// out\n        /* \"contracts/test_viewing.sol\":617:932  function like(address _author, uint256 index) public {... */\n    tag_24:\n        /* \"contracts/test_viewing.sol\":713:718  index */\n      dup1\n        /* \"contracts/test_viewing.sol\":688:694  tweets */\n      0x00\n        /* \"contracts/test_viewing.sol\":688:703  tweets[_author] */\n      dup1\n        /* \"contracts/test_viewing.sol\":695:702  _author */\n      dup5\n        /* \"contracts/test_viewing.sol\":688:703  tweets[_author] */\n      0xffffffffffffffffffffffffffffffffffffffff\n      and\n      0xffffffffffffffffffffffffffffffffffffffff\n      and\n      dup2\n      mstore\n      0x20\n      add\n      swap1\n      dup2\n      mstore\n      0x20\n      add\n      0x00\n      keccak256\n        /* \"contracts/test_viewing.sol\":688:710  tweets[_author].length */\n      dup1\n      sload\n      swap1\n      pop\n        /* \"contracts/test_viewing.sol\":688:718  tweets[_author].length > index */\n      gt\n        /* \"contracts/test_viewing.sol\":688:732  tweets[_author].length > index && index >= 0 */\n      dup1\n      iszero\n      tag_48\n      jumpi\n      pop\n        /* \"contracts/test_viewing.sol\":731:732  0 */\n      0x00\n        /* \"contracts/test_viewing.sol\":722:727  index */\n      dup2\n        /* \"contracts/test_viewing.sol\":722:732  index >= 0 */\n      lt\n      iszero\n        /* \"contracts/test_viewing.sol\":688:732  tweets[_author].length > index && index >= 0 */\n    tag_48:\n        /* \"contracts/test_viewing.sol\":680:750  require(tweets[_author].length > index && index >= 0, \"Invalid Tweet\") */\n      tag_49\n      jumpi\n      mload(0x40)\n      0x08c379a000000000000000000000000000000000000000000000000000000000\n      dup2\n      mstore\n      0x04\n      add\n      tag_50\n      swap1\n      tag_51\n      jump\t// in\n    tag_50:\n      mload(0x40)\n      dup1\n      swap2\n      sub\n      swap1\n      revert\n    tag_49:\n        /* \"contracts/test_viewing.sol\":764:770  tweets */\n      0x00\n        /* \"contracts/test_viewing.sol\":764:779  tweets[_author] */\n      dup1\n        /* \"contracts/test_viewing.sol\":771:778  _author */\n      dup4\n        /* \"contracts/test_viewing.sol\":764:779  tweets[_author] */\n      0xffffffffffffffffffffffffffffffffffffffff\n      and\n      0xffffffffffffffffffffffffffffffffffffffff\n      and\n      dup2\n      mstore\n      0x20\n      add\n      swap1\n      dup2\n      mstore\n      0x20\n      add\n      0x00\n      keccak256\n        /* \"contracts/test_viewing.sol\":780:785  index */\n      dup2\n        /* \"contracts/test_viewing.sol\":764:786  tweets[_author][index] */\n      dup2\n      sload\n      dup2\n      lt\n      tag_52\n      jumpi\n      tag_53\n      tag_36\n      jump\t// in\n    tag_53:\n    tag_52:\n      swap1\n      0x00\n      mstore\n      keccak256(0x00, 0x20)\n      swap1\n      0x05\n      mul\n      add\n        /* \"contracts/test_viewing.sol\":764:794  tweets[_author][index].likeSet */\n      0x03\n      add\n        /* \"contracts/test_viewing.sol\":764:806  tweets[_author][index].likeSet[msg.sender] */\n      0x00\n        /* \"contracts/test_viewing.sol\":795:805  msg.sender */\n      caller\n        /* \"contracts/test_viewing.sol\":764:806  tweets[_author][index].likeSet[msg.sender] */\n      0xffffffffffffffffffffffffffffffffffffffff\n      and\n      0xffffffffffffffffffffffffffffffffffffffff\n      and\n      dup2\n      mstore\n      0x20\n      add\n      swap1\n      dup2\n      mstore\n      0x20\n      add\n      0x00\n      keccak256\n      0x00\n      swap1\n      sload\n      swap1\n      0x0100\n      exp\n      swap1\n      div\n      0xff\n      and\n        /* \"contracts/test_viewing.sol\":760:926  if(!tweets[_author][index].likeSet[msg.sender]) {... */\n      tag_55\n      jumpi\n        /* \"contracts/test_viewing.sol\":867:871  true */\n      0x01\n        /* \"contracts/test_viewing.sol\":822:828  tweets */\n      0x00\n        /* \"contracts/test_viewing.sol\":822:837  tweets[_author] */\n      dup1\n        /* \"contracts/test_viewing.sol\":829:836  _author */\n      dup5\n        /* \"contracts/test_viewing.sol\":822:837  tweets[_author] */\n      0xffffffffffffffffffffffffffffffffffffffff\n      and\n      0xffffffffffffffffffffffffffffffffffffffff\n      and\n      dup2\n      mstore\n      0x20\n      add\n      swap1\n      dup2\n      mstore\n      0x20\n      add\n      0x00\n      keccak256\n        /* \"contracts/test_viewing.sol\":838:843  index */\n      dup3\n        /* \"contracts/test_viewing.sol\":822:844  tweets[_author][index] */\n      dup2\n      sload\n      dup2\n      lt\n      tag_56\n      jumpi\n      tag_57\n      tag_36\n      jump\t// in\n    tag_57:\n    tag_56:\n      swap1\n      0x00\n      mstore\n      keccak256(0x00, 0x20)\n      swap1\n      0x05\n      mul\n      add\n        /* \"contracts/test_viewing.sol\":822:852  tweets[_author][index].likeSet */\n      0x03\n      add\n        /* \"contracts/test_viewing.sol\":822:864  tweets[_author][index].likeSet[msg.sender] */\n      0x00\n        /* \"contracts/test_viewing.sol\":853:863  msg.sender */\n      caller\n        /* \"contracts/test_viewing.sol\":822:864  tweets[_author][index].likeSet[msg.sender] */\n      0xffffffffffffffffffffffffffffffffffffffff\n      and\n      0xffffffffffffffffffffffffffffffffffffffff\n      and\n      dup2\n      mstore\n      0x20\n      add\n      swap1\n      dup2\n      mstore\n      0x20\n      add\n      0x00\n      keccak256\n      0x00\n        /* \"contracts/test_viewing.sol\":822:871  tweets[_author][index].likeSet[msg.sender] = true */\n      0x0100\n      exp\n      dup2\n      sload\n      dup2\n      0xff\n      mul\n      not\n      and\n      swap1\n      dup4\n      iszero\n      iszero\n      mul\n      or\n      swap1\n      sstore\n      pop\n        /* \"contracts/test_viewing.sol\":885:891  tweets */\n      0x00\n        /* \"contracts/test_viewing.sol\":885:900  tweets[_author] */\n      dup1\n        /* \"contracts/test_viewing.sol\":892:899  _author */\n      dup4\n        /* \"contracts/test_viewing.sol\":885:900  tweets[_author] */\n      0xffffffffffffffffffffffffffffffffffffffff\n      and\n      0xffffffffffffffffffffffffffffffffffffffff\n      and\n      dup2\n      mstore\n      0x20\n      add\n      swap1\n      dup2\n      mstore\n      0x20\n      add\n      0x00\n      keccak256\n        /* \"contracts/test_viewing.sol\":901:906  index */\n      dup2\n        /* \"contracts/test_viewing.sol\":885:907  tweets[_author][index] */\n      dup2\n      sload\n      dup2\n      lt\n      tag_59\n      jumpi\n      tag_60\n      tag_36\n      jump\t// in\n    tag_60:\n    tag_59:\n      swap1\n      0x00\n      mstore\n      keccak256(0x00, 0x20)\n      swap1\n      0x05\n      mul\n      add\n        /* \"contracts/test_viewing.sol\":885:913  tweets[_author][index].likes */\n      0x04\n      add\n      0x00\n        /* \"contracts/test_viewing.sol\":885:915  tweets[_author][index].likes++ */\n      dup2\n      sload\n      dup1\n      swap3\n      swap2\n      swap1\n      tag_62\n      swap1\n      tag_63\n      jump\t// in\n    tag_62:\n      swap2\n      swap1\n      pop\n      sstore\n      pop\n        /* \"contracts/test_viewing.sol\":760:926  if(!tweets[_author][index].likeSet[msg.sender]) {... */\n    tag_55:\n        /* \"contracts/test_viewing.sol\":617:932  function like(address _author, uint256 index) public {... */\n      pop\n      pop\n      jump\t// out\n        /* \"#utility.yul\":7:82   */\n    tag_64:\n        /* \"#utility.yul\":40:46   */\n      0x00\n        /* \"#utility.yul\":73:75   */\n      0x40\n        /* \"#utility.yul\":67:76   */\n      mload\n        /* \"#utility.yul\":57:76   */\n      swap1\n      pop\n        /* \"#utility.yul\":7:82   */\n      swap1\n      jump\t// out\n        /* \"#utility.yul\":88:205   */\n    tag_65:\n        /* \"#utility.yul\":197:198   */\n      0x00\n        /* \"#utility.yul\":194:195   */\n      dup1\n        /* \"#utility.yul\":187:199   */\n      revert\n        /* \"#utility.yul\":211:328   */\n    tag_66:\n        /* \"#utility.yul\":320:321   */\n      0x00\n        /* \"#utility.yul\":317:318   */\n      dup1\n        /* \"#utility.yul\":310:322   */\n      revert\n        /* \"#utility.yul\":334:460   */\n    tag_67:\n        /* \"#utility.yul\":371:378   */\n      0x00\n        /* \"#utility.yul\":411:453   */\n      0xffffffffffffffffffffffffffffffffffffffff\n        /* \"#utility.yul\":404:409   */\n      dup3\n        /* \"#utility.yul\":400:454   */\n      and\n        /* \"#utility.yul\":389:454   */\n      swap1\n      pop\n        /* \"#utility.yul\":334:460   */\n      swap2\n      swap1\n      pop\n      jump\t// out\n        /* \"#utility.yul\":466:562   */\n    tag_68:\n        /* \"#utility.yul\":503:510   */\n      0x00\n        /* \"#utility.yul\":532:556   */\n      tag_115\n        /* \"#utility.yul\":550:555   */\n      dup3\n        /* \"#utility.yul\":532:556   */\n      tag_67\n      jump\t// in\n    tag_115:\n        /* \"#utility.yul\":521:556   */\n      swap1\n      pop\n        /* \"#utility.yul\":466:562   */\n      swap2\n      swap1\n      pop\n      jump\t// out\n        /* \"#utility.yul\":568:690   */\n    tag_69:\n        /* \"#utility.yul\":641:665   */\n      tag_117\n        /* \"#utility.yul\":659:664   */\n      dup2\n        /* \"#utility.yul\":641:665   */\n      tag_68\n      jump\t// in\n    tag_117:\n        /* \"#utility.yul\":634:639   */\n      dup2\n        /* \"#utility.yul\":631:666   */\n      eq\n        /* \"#utility.yul\":621:684   */\n      tag_118\n      jumpi\n        /* \"#utility.yul\":680:681   */\n      0x00\n        /* \"#utility.yul\":677:678   */\n      dup1\n        /* \"#utility.yul\":670:682   */\n      revert\n        /* \"#utility.yul\":621:684   */\n    tag_118:\n        /* \"#utility.yul\":568:690   */\n      pop\n      jump\t// out\n        /* \"#utility.yul\":696:835   */\n    tag_70:\n        /* \"#utility.yul\":742:747   */\n      0x00\n        /* \"#utility.yul\":780:786   */\n      dup2\n        /* \"#utility.yul\":767:787   */\n      calldataload\n        /* \"#utility.yul\":758:787   */\n      swap1\n      pop\n        /* \"#utility.yul\":796:829   */\n      tag_120\n        /* \"#utility.yul\":823:828   */\n      dup2\n        /* \"#utility.yul\":796:829   */\n      tag_69\n      jump\t// in\n    tag_120:\n        /* \"#utility.yul\":696:835   */\n      swap3\n      swap2\n      pop\n      pop\n      jump\t// out\n        /* \"#utility.yul\":841:918   */\n    tag_71:\n        /* \"#utility.yul\":878:885   */\n      0x00\n        /* \"#utility.yul\":907:912   */\n      dup2\n        /* \"#utility.yul\":896:912   */\n      swap1\n      pop\n        /* \"#utility.yul\":841:918   */\n      swap2\n      swap1\n      pop\n      jump\t// out\n        /* \"#utility.yul\":924:1046   */\n    tag_72:\n        /* \"#utility.yul\":997:1021   */\n      tag_123\n        /* \"#utility.yul\":1015:1020   */\n      dup2\n        /* \"#utility.yul\":997:1021   */\n      tag_71\n      jump\t// in\n    tag_123:\n        /* \"#utility.yul\":990:995   */\n      dup2\n        /* \"#utility.yul\":987:1022   */\n      eq\n        /* \"#utility.yul\":977:1040   */\n      tag_124\n      jumpi\n        /* \"#utility.yul\":1036:1037   */\n      0x00\n        /* \"#utility.yul\":1033:1034   */\n      dup1\n        /* \"#utility.yul\":1026:1038   */\n      revert\n        /* \"#utility.yul\":977:1040   */\n    tag_124:\n        /* \"#utility.yul\":924:1046   */\n      pop\n      jump\t// out\n        /* \"#utility.yul\":1052:1191   */\n    tag_73:\n        /* \"#utility.yul\":1098:1103   */\n      0x00\n        /* \"#utility.yul\":1136:1142   */\n      dup2\n        /* \"#utility.yul\":1123:1143   */\n      calldataload\n        /* \"#utility.yul\":1114:1143   */\n      swap1\n      pop\n        /* \"#utility.yul\":1152:1185   */\n      tag_126\n        /* \"#utility.yul\":1179:1184   */\n      dup2\n        /* \"#utility.yul\":1152:1185   */\n      tag_72\n      jump\t// in\n    tag_126:\n        /* \"#utility.yul\":1052:1191   */\n      swap3\n      swap2\n      pop\n      pop\n      jump\t// out\n        /* \"#utility.yul\":1197:1671   */\n    tag_9:\n        /* \"#utility.yul\":1265:1271   */\n      0x00\n        /* \"#utility.yul\":1273:1279   */\n      dup1\n        /* \"#utility.yul\":1322:1324   */\n      0x40\n        /* \"#utility.yul\":1310:1319   */\n      dup4\n        /* \"#utility.yul\":1301:1308   */\n      dup6\n        /* \"#utility.yul\":1297:1320   */\n      sub\n        /* \"#utility.yul\":1293:1325   */\n      slt\n        /* \"#utility.yul\":1290:1409   */\n      iszero\n      tag_128\n      jumpi\n        /* \"#utility.yul\":1328:1407   */\n      tag_129\n      tag_65\n      jump\t// in\n    tag_129:\n        /* \"#utility.yul\":1290:1409   */\n    tag_128:\n        /* \"#utility.yul\":1448:1449   */\n      0x00\n        /* \"#utility.yul\":1473:1526   */\n      tag_130\n        /* \"#utility.yul\":1518:1525   */\n      dup6\n        /* \"#utility.yul\":1509:1515   */\n      dup3\n        /* \"#utility.yul\":1498:1507   */\n      dup7\n        /* \"#utility.yul\":1494:1516   */\n      add\n        /* \"#utility.yul\":1473:1526   */\n      tag_70\n      jump\t// in\n    tag_130:\n        /* \"#utility.yul\":1463:1526   */\n      swap3\n      pop\n        /* \"#utility.yul\":1419:1536   */\n      pop\n        /* \"#utility.yul\":1575:1577   */\n      0x20\n        /* \"#utility.yul\":1601:1654   */\n      tag_131\n        /* \"#utility.yul\":1646:1653   */\n      dup6\n        /* \"#utility.yul\":1637:1643   */\n      dup3\n        /* \"#utility.yul\":1626:1635   */\n      dup7\n        /* \"#utility.yul\":1622:1644   */\n      add\n        /* \"#utility.yul\":1601:1654   */\n      tag_73\n      jump\t// in\n    tag_131:\n        /* \"#utility.yul\":1591:1654   */\n      swap2\n      pop\n        /* \"#utility.yul\":1546:1664   */\n      pop\n        /* \"#utility.yul\":1197:1671   */\n      swap3\n      pop\n      swap3\n      swap1\n      pop\n      jump\t// out\n        /* \"#utility.yul\":1677:1795   */\n    tag_74:\n        /* \"#utility.yul\":1764:1788   */\n      tag_133\n        /* \"#utility.yul\":1782:1787   */\n      dup2\n        /* \"#utility.yul\":1764:1788   */\n      tag_68\n      jump\t// in\n    tag_133:\n        /* \"#utility.yul\":1759:1762   */\n      dup3\n        /* \"#utility.yul\":1752:1789   */\n      mstore\n        /* \"#utility.yul\":1677:1795   */\n      pop\n      pop\n      jump\t// out\n        /* \"#utility.yul\":1801:1900   */\n    tag_75:\n        /* \"#utility.yul\":1853:1859   */\n      0x00\n        /* \"#utility.yul\":1887:1892   */\n      dup2\n        /* \"#utility.yul\":1881:1893   */\n      mload\n        /* \"#utility.yul\":1871:1893   */\n      swap1\n      pop\n        /* \"#utility.yul\":1801:1900   */\n      swap2\n      swap1\n      pop\n      jump\t// out\n        /* \"#utility.yul\":1906:2075   */\n    tag_76:\n        /* \"#utility.yul\":1990:2001   */\n      0x00\n        /* \"#utility.yul\":2024:2030   */\n      dup3\n        /* \"#utility.yul\":2019:2022   */\n      dup3\n        /* \"#utility.yul\":2012:2031   */\n      mstore\n        /* \"#utility.yul\":2064:2068   */\n      0x20\n        /* \"#utility.yul\":2059:2062   */\n      dup3\n        /* \"#utility.yul\":2055:2069   */\n      add\n        /* \"#utility.yul\":2040:2069   */\n      swap1\n      pop\n        /* \"#utility.yul\":1906:2075   */\n      swap3\n      swap2\n      pop\n      pop\n      jump\t// out\n        /* \"#utility.yul\":2081:2220   */\n    tag_77:\n        /* \"#utility.yul\":2170:2176   */\n      dup3\n        /* \"#utility.yul\":2165:2168   */\n      dup2\n        /* \"#utility.yul\":2160:2163   */\n      dup4\n        /* \"#utility.yul\":2154:2177   */\n      mcopy\n        /* \"#utility.yul\":2211:2212   */\n      0x00\n        /* \"#utility.yul\":2202:2208   */\n      dup4\n        /* \"#utility.yul\":2197:2200   */\n      dup4\n        /* \"#utility.yul\":2193:2209   */\n      add\n        /* \"#utility.yul\":2186:2213   */\n      mstore\n        /* \"#utility.yul\":2081:2220   */\n      pop\n      pop\n      pop\n      jump\t// out\n        /* \"#utility.yul\":2226:2328   */\n    tag_78:\n        /* \"#utility.yul\":2267:2273   */\n      0x00\n        /* \"#utility.yul\":2318:2320   */\n      0x1f\n        /* \"#utility.yul\":2314:2321   */\n      not\n        /* \"#utility.yul\":2309:2311   */\n      0x1f\n        /* \"#utility.yul\":2302:2307   */\n      dup4\n        /* \"#utility.yul\":2298:2312   */\n      add\n        /* \"#utility.yul\":2294:2322   */\n      and\n        /* \"#utility.yul\":2284:2322   */\n      swap1\n      pop\n        /* \"#utility.yul\":2226:2328   */\n      swap2\n      swap1\n      pop\n      jump\t// out\n        /* \"#utility.yul\":2334:2711   */\n    tag_79:\n        /* \"#utility.yul\":2422:2425   */\n      0x00\n        /* \"#utility.yul\":2450:2489   */\n      tag_139\n        /* \"#utility.yul\":2483:2488   */\n      dup3\n        /* \"#utility.yul\":2450:2489   */\n      tag_75\n      jump\t// in\n    tag_139:\n        /* \"#utility.yul\":2505:2576   */\n      tag_140\n        /* \"#utility.yul\":2569:2575   */\n      dup2\n        /* \"#utility.yul\":2564:2567   */\n      dup6\n        /* \"#utility.yul\":2505:2576   */\n      tag_76\n      jump\t// in\n    tag_140:\n        /* \"#utility.yul\":2498:2576   */\n      swap4\n      pop\n        /* \"#utility.yul\":2585:2650   */\n      tag_141\n        /* \"#utility.yul\":2643:2649   */\n      dup2\n        /* \"#utility.yul\":2638:2641   */\n      dup6\n        /* \"#utility.yul\":2631:2635   */\n      0x20\n        /* \"#utility.yul\":2624:2629   */\n      dup7\n        /* \"#utility.yul\":2620:2636   */\n      add\n        /* \"#utility.yul\":2585:2650   */\n      tag_77\n      jump\t// in\n    tag_141:\n        /* \"#utility.yul\":2675:2704   */\n      tag_142\n        /* \"#utility.yul\":2697:2703   */\n      dup2\n        /* \"#utility.yul\":2675:2704   */\n      tag_78\n      jump\t// in\n    tag_142:\n        /* \"#utility.yul\":2670:2673   */\n      dup5\n        /* \"#utility.yul\":2666:2705   */\n      add\n        /* \"#utility.yul\":2659:2705   */\n      swap2\n      pop\n        /* \"#utility.yul\":2426:2711   */\n      pop\n        /* \"#utility.yul\":2334:2711   */\n      swap3\n      swap2\n      pop\n      pop\n      jump\t// out\n        /* \"#utility.yul\":2717:2835   */\n    tag_80:\n        /* \"#utility.yul\":2804:2828   */\n      tag_144\n        /* \"#utility.yul\":2822:2827   */\n      dup2\n        /* \"#utility.yul\":2804:2828   */\n      tag_71\n      jump\t// in\n    tag_144:\n        /* \"#utility.yul\":2799:2802   */\n      dup3\n        /* \"#utility.yul\":2792:2829   */\n      mstore\n        /* \"#utility.yul\":2717:2835   */\n      pop\n      pop\n      jump\t// out\n        /* \"#utility.yul\":2841:3485   */\n    tag_12:\n        /* \"#utility.yul\":3038:3042   */\n      0x00\n        /* \"#utility.yul\":3076:3079   */\n      0x80\n        /* \"#utility.yul\":3065:3074   */\n      dup3\n        /* \"#utility.yul\":3061:3080   */\n      add\n        /* \"#utility.yul\":3053:3080   */\n      swap1\n      pop\n        /* \"#utility.yul\":3090:3161   */\n      tag_146\n        /* \"#utility.yul\":3158:3159   */\n      0x00\n        /* \"#utility.yul\":3147:3156   */\n      dup4\n        /* \"#utility.yul\":3143:3160   */\n      add\n        /* \"#utility.yul\":3134:3140   */\n      dup8\n        /* \"#utility.yul\":3090:3161   */\n      tag_74\n      jump\t// in\n    tag_146:\n        /* \"#utility.yul\":3208:3217   */\n      dup2\n        /* \"#utility.yul\":3202:3206   */\n      dup2\n        /* \"#utility.yul\":3198:3218   */\n      sub\n        /* \"#utility.yul\":3193:3195   */\n      0x20\n        /* \"#utility.yul\":3182:3191   */\n      dup4\n        /* \"#utility.yul\":3178:3196   */\n      add\n        /* \"#utility.yul\":3171:3219   */\n      mstore\n        /* \"#utility.yul\":3236:3314   */\n      tag_147\n        /* \"#utility.yul\":3309:3313   */\n      dup2\n        /* \"#utility.yul\":3300:3306   */\n      dup7\n        /* \"#utility.yul\":3236:3314   */\n      tag_79\n      jump\t// in\n    tag_147:\n        /* \"#utility.yul\":3228:3314   */\n      swap1\n      pop\n        /* \"#utility.yul\":3324:3396   */\n      tag_148\n        /* \"#utility.yul\":3392:3394   */\n      0x40\n        /* \"#utility.yul\":3381:3390   */\n      dup4\n        /* \"#utility.yul\":3377:3395   */\n      add\n        /* \"#utility.yul\":3368:3374   */\n      dup6\n        /* \"#utility.yul\":3324:3396   */\n      tag_80\n      jump\t// in\n    tag_148:\n        /* \"#utility.yul\":3406:3478   */\n      tag_149\n        /* \"#utility.yul\":3474:3476   */\n      0x60\n        /* \"#utility.yul\":3463:3472   */\n      dup4\n        /* \"#utility.yul\":3459:3477   */\n      add\n        /* \"#utility.yul\":3450:3456   */\n      dup5\n        /* \"#utility.yul\":3406:3478   */\n      tag_80\n      jump\t// in\n    tag_149:\n        /* \"#utility.yul\":2841:3485   */\n      swap6\n      swap5\n      pop\n      pop\n      pop\n      pop\n      pop\n      jump\t// out\n        /* \"#utility.yul\":3491:3713   */\n    tag_17:\n        /* \"#utility.yul\":3584:3588   */\n      0x00\n        /* \"#utility.yul\":3622:3624   */\n      0x20\n        /* \"#utility.yul\":3611:3620   */\n      dup3\n        /* \"#utility.yul\":3607:3625   */\n      add\n        /* \"#utility.yul\":3599:3625   */\n      swap1\n      pop\n        /* \"#utility.yul\":3635:3706   */\n      tag_151\n        /* \"#utility.yul\":3703:3704   */\n      0x00\n        /* \"#utility.yul\":3692:3701   */\n      dup4\n        /* \"#utility.yul\":3688:3705   */\n      add\n        /* \"#utility.yul\":3679:3685   */\n      dup5\n        /* \"#utility.yul\":3635:3706   */\n      tag_80\n      jump\t// in\n    tag_151:\n        /* \"#utility.yul\":3491:3713   */\n      swap3\n      swap2\n      pop\n      pop\n      jump\t// out\n        /* \"#utility.yul\":3719:3836   */\n    tag_81:\n        /* \"#utility.yul\":3828:3829   */\n      0x00\n        /* \"#utility.yul\":3825:3826   */\n      dup1\n        /* \"#utility.yul\":3818:3830   */\n      revert\n        /* \"#utility.yul\":3842:3959   */\n    tag_82:\n        /* \"#utility.yul\":3951:3952   */\n      0x00\n        /* \"#utility.yul\":3948:3949   */\n      dup1\n        /* \"#utility.yul\":3941:3953   */\n      revert\n        /* \"#utility.yul\":3965:4145   */\n    tag_83:\n        /* \"#utility.yul\":4013:4090   */\n      0x4e487b7100000000000000000000000000000000000000000000000000000000\n        /* \"#utility.yul\":4010:4011   */\n      0x00\n        /* \"#utility.yul\":4003:4091   */\n      mstore\n        /* \"#utility.yul\":4110:4114   */\n      0x41\n        /* \"#utility.yul\":4107:4108   */\n      0x04\n        /* \"#utility.yul\":4100:4115   */\n      mstore\n        /* \"#utility.yul\":4134:4138   */\n      0x24\n        /* \"#utility.yul\":4131:4132   */\n      0x00\n        /* \"#utility.yul\":4124:4139   */\n      revert\n        /* \"#utility.yul\":4151:4432   */\n    tag_84:\n        /* \"#utility.yul\":4234:4261   */\n      tag_156\n        /* \"#utility.yul\":4256:4260   */\n      dup3\n        /* \"#utility.yul\":4234:4261   */\n      tag_78\n      jump\t// in\n    tag_156:\n        /* \"#utility.yul\":4226:4232   */\n      dup2\n        /* \"#utility.yul\":4222:4262   */\n      add\n        /* \"#utility.yul\":4364:4370   */\n      dup2\n        /* \"#utility.yul\":4352:4362   */\n      dup2\n        /* \"#utility.yul\":4349:4371   */\n      lt\n        /* \"#utility.yul\":4328:4346   */\n      0xffffffffffffffff\n        /* \"#utility.yul\":4316:4326   */\n      dup3\n        /* \"#utility.yul\":4313:4347   */\n      gt\n        /* \"#utility.yul\":4310:4372   */\n      or\n        /* \"#utility.yul\":4307:4395   */\n      iszero\n      tag_157\n      jumpi\n        /* \"#utility.yul\":4375:4393   */\n      tag_158\n      tag_83\n      jump\t// in\n    tag_158:\n        /* \"#utility.yul\":4307:4395   */\n    tag_157:\n        /* \"#utility.yul\":4415:4425   */\n      dup1\n        /* \"#utility.yul\":4411:4413   */\n      0x40\n        /* \"#utility.yul\":4404:4426   */\n      mstore\n        /* \"#utility.yul\":4194:4432   */\n      pop\n        /* \"#utility.yul\":4151:4432   */\n      pop\n      pop\n      jump\t// out\n        /* \"#utility.yul\":4438:4567   */\n    tag_85:\n        /* \"#utility.yul\":4472:4478   */\n      0x00\n        /* \"#utility.yul\":4499:4519   */\n      tag_160\n      tag_64\n      jump\t// in\n    tag_160:\n        /* \"#utility.yul\":4489:4519   */\n      swap1\n      pop\n        /* \"#utility.yul\":4528:4561   */\n      tag_161\n        /* \"#utility.yul\":4556:4560   */\n      dup3\n        /* \"#utility.yul\":4548:4554   */\n      dup3\n        /* \"#utility.yul\":4528:4561   */\n      tag_84\n      jump\t// in\n    tag_161:\n        /* \"#utility.yul\":4438:4567   */\n      swap2\n      swap1\n      pop\n      jump\t// out\n        /* \"#utility.yul\":4573:4881   */\n    tag_86:\n        /* \"#utility.yul\":4635:4639   */\n      0x00\n        /* \"#utility.yul\":4725:4743   */\n      0xffffffffffffffff\n        /* \"#utility.yul\":4717:4723   */\n      dup3\n        /* \"#utility.yul\":4714:4744   */\n      gt\n        /* \"#utility.yul\":4711:4767   */\n      iszero\n      tag_163\n      jumpi\n        /* \"#utility.yul\":4747:4765   */\n      tag_164\n      tag_83\n      jump\t// in\n    tag_164:\n        /* \"#utility.yul\":4711:4767   */\n    tag_163:\n        /* \"#utility.yul\":4785:4814   */\n      tag_165\n        /* \"#utility.yul\":4807:4813   */\n      dup3\n        /* \"#utility.yul\":4785:4814   */\n      tag_78\n      jump\t// in\n    tag_165:\n        /* \"#utility.yul\":4777:4814   */\n      swap1\n      pop\n        /* \"#utility.yul\":4869:4873   */\n      0x20\n        /* \"#utility.yul\":4863:4867   */\n      dup2\n        /* \"#utility.yul\":4859:4874   */\n      add\n        /* \"#utility.yul\":4851:4874   */\n      swap1\n      pop\n        /* \"#utility.yul\":4573:4881   */\n      swap2\n      swap1\n      pop\n      jump\t// out\n        /* \"#utility.yul\":4887:5035   */\n    tag_87:\n        /* \"#utility.yul\":4985:4991   */\n      dup3\n        /* \"#utility.yul\":4980:4983   */\n      dup2\n        /* \"#utility.yul\":4975:4978   */\n      dup4\n        /* \"#utility.yul\":4962:4992   */\n      calldatacopy\n        /* \"#utility.yul\":5026:5027   */\n      0x00\n        /* \"#utility.yul\":5017:5023   */\n      dup4\n        /* \"#utility.yul\":5012:5015   */\n      dup4\n        /* \"#utility.yul\":5008:5024   */\n      add\n        /* \"#utility.yul\":5001:5028   */\n      mstore\n        /* \"#utility.yul\":4887:5035   */\n      pop\n      pop\n      pop\n      jump\t// out\n        /* \"#utility.yul\":5041:5466   */\n    tag_88:\n        /* \"#utility.yul\":5119:5124   */\n      0x00\n        /* \"#utility.yul\":5144:5210   */\n      tag_168\n        /* \"#utility.yul\":5160:5209   */\n      tag_169\n        /* \"#utility.yul\":5202:5208   */\n      dup5\n        /* \"#utility.yul\":5160:5209   */\n      tag_86\n      jump\t// in\n    tag_169:\n        /* \"#utility.yul\":5144:5210   */\n      tag_85\n      jump\t// in\n    tag_168:\n        /* \"#utility.yul\":5135:5210   */\n      swap1\n      pop\n        /* \"#utility.yul\":5233:5239   */\n      dup3\n        /* \"#utility.yul\":5226:5231   */\n      dup2\n        /* \"#utility.yul\":5219:5240   */\n      mstore\n        /* \"#utility.yul\":5271:5275   */\n      0x20\n        /* \"#utility.yul\":5264:5269   */\n      dup2\n        /* \"#utility.yul\":5260:5276   */\n      add\n        /* \"#utility.yul\":5309:5312   */\n      dup5\n        /* \"#utility.yul\":5300:5306   */\n      dup5\n        /* \"#utility.yul\":5295:5298   */\n      dup5\n        /* \"#utility.yul\":5291:5307   */\n      add\n        /* \"#utility.yul\":5288:5313   */\n      gt\n        /* \"#utility.yul\":5285:5397   */\n      iszero\n      tag_170\n      jumpi\n        /* \"#utility.yul\":5316:5395   */\n      tag_171\n      tag_82\n      jump\t// in\n    tag_171:\n        /* \"#utility.yul\":5285:5397   */\n    tag_170:\n        /* \"#utility.yul\":5406:5460   */\n      tag_172\n        /* \"#utility.yul\":5453:5459   */\n      dup5\n        /* \"#utility.yul\":5448:5451   */\n      dup3\n        /* \"#utility.yul\":5443:5446   */\n      dup6\n        /* \"#utility.yul\":5406:5460   */\n      tag_87\n      jump\t// in\n    tag_172:\n        /* \"#utility.yul\":5125:5466   */\n      pop\n        /* \"#utility.yul\":5041:5466   */\n      swap4\n      swap3\n      pop\n      pop\n      pop\n      jump\t// out\n        /* \"#utility.yul\":5486:5826   */\n    tag_89:\n        /* \"#utility.yul\":5542:5547   */\n      0x00\n        /* \"#utility.yul\":5591:5594   */\n      dup3\n        /* \"#utility.yul\":5584:5588   */\n      0x1f\n        /* \"#utility.yul\":5576:5582   */\n      dup4\n        /* \"#utility.yul\":5572:5589   */\n      add\n        /* \"#utility.yul\":5568:5595   */\n      slt\n        /* \"#utility.yul\":5558:5680   */\n      tag_174\n      jumpi\n        /* \"#utility.yul\":5599:5678   */\n      tag_175\n      tag_81\n      jump\t// in\n    tag_175:\n        /* \"#utility.yul\":5558:5680   */\n    tag_174:\n        /* \"#utility.yul\":5716:5722   */\n      dup2\n        /* \"#utility.yul\":5703:5723   */\n      calldataload\n        /* \"#utility.yul\":5741:5820   */\n      tag_176\n        /* \"#utility.yul\":5816:5819   */\n      dup5\n        /* \"#utility.yul\":5808:5814   */\n      dup3\n        /* \"#utility.yul\":5801:5805   */\n      0x20\n        /* \"#utility.yul\":5793:5799   */\n      dup7\n        /* \"#utility.yul\":5789:5806   */\n      add\n        /* \"#utility.yul\":5741:5820   */\n      tag_88\n      jump\t// in\n    tag_176:\n        /* \"#utility.yul\":5732:5820   */\n      swap2\n      pop\n        /* \"#utility.yul\":5548:5826   */\n      pop\n        /* \"#utility.yul\":5486:5826   */\n      swap3\n      swap2\n      pop\n      pop\n      jump\t// out\n        /* \"#utility.yul\":5832:6341   */\n    tag_20:\n        /* \"#utility.yul\":5901:5907   */\n      0x00\n        /* \"#utility.yul\":5950:5952   */\n      0x20\n        /* \"#utility.yul\":5938:5947   */\n      dup3\n        /* \"#utility.yul\":5929:5936   */\n      dup5\n        /* \"#utility.yul\":5925:5948   */\n      sub\n        /* \"#utility.yul\":5921:5953   */\n      slt\n        /* \"#utility.yul\":5918:6037   */\n      iszero\n      tag_178\n      jumpi\n        /* \"#utility.yul\":5956:6035   */\n      tag_179\n      tag_65\n      jump\t// in\n    tag_179:\n        /* \"#utility.yul\":5918:6037   */\n    tag_178:\n        /* \"#utility.yul\":6104:6105   */\n      0x00\n        /* \"#utility.yul\":6093:6102   */\n      dup3\n        /* \"#utility.yul\":6089:6106   */\n      add\n        /* \"#utility.yul\":6076:6107   */\n      calldataload\n        /* \"#utility.yul\":6134:6152   */\n      0xffffffffffffffff\n        /* \"#utility.yul\":6126:6132   */\n      dup2\n        /* \"#utility.yul\":6123:6153   */\n      gt\n        /* \"#utility.yul\":6120:6237   */\n      iszero\n      tag_180\n      jumpi\n        /* \"#utility.yul\":6156:6235   */\n      tag_181\n      tag_66\n      jump\t// in\n    tag_181:\n        /* \"#utility.yul\":6120:6237   */\n    tag_180:\n        /* \"#utility.yul\":6261:6324   */\n      tag_182\n        /* \"#utility.yul\":6316:6323   */\n      dup5\n        /* \"#utility.yul\":6307:6313   */\n      dup3\n        /* \"#utility.yul\":6296:6305   */\n      dup6\n        /* \"#utility.yul\":6292:6314   */\n      add\n        /* \"#utility.yul\":6261:6324   */\n      tag_89\n      jump\t// in\n    tag_182:\n        /* \"#utility.yul\":6251:6324   */\n      swap2\n      pop\n        /* \"#utility.yul\":6047:6334   */\n      pop\n        /* \"#utility.yul\":5832:6341   */\n      swap3\n      swap2\n      pop\n      pop\n      jump\t// out\n        /* \"#utility.yul\":6347:6527   */\n    tag_90:\n        /* \"#utility.yul\":6395:6472   */\n      0x4e487b7100000000000000000000000000000000000000000000000000000000\n        /* \"#utility.yul\":6392:6393   */\n      0x00\n        /* \"#utility.yul\":6385:6473   */\n      mstore\n        /* \"#utility.yul\":6492:6496   */\n      0x22\n        /* \"#utility.yul\":6489:6490   */\n      0x04\n        /* \"#utility.yul\":6482:6497   */\n      mstore\n        /* \"#utility.yul\":6516:6520   */\n      0x24\n        /* \"#utility.yul\":6513:6514   */\n      0x00\n        /* \"#utility.yul\":6506:6521   */\n      revert\n        /* \"#utility.yul\":6533:6853   */\n    tag_28:\n        /* \"#utility.yul\":6577:6583   */\n      0x00\n        /* \"#utility.yul\":6614:6615   */\n      0x02\n        /* \"#utility.yul\":6608:6612   */\n      dup3\n        /* \"#utility.yul\":6604:6616   */\n      div\n        /* \"#utility.yul\":6594:6616   */\n      swap1\n      pop\n        /* \"#utility.yul\":6661:6662   */\n      0x01\n        /* \"#utility.yul\":6655:6659   */\n      dup3\n        /* \"#utility.yul\":6651:6663   */\n      and\n        /* \"#utility.yul\":6682:6700   */\n      dup1\n        /* \"#utility.yul\":6672:6753   */\n      tag_185\n      jumpi\n        /* \"#utility.yul\":6738:6742   */\n      0x7f\n        /* \"#utility.yul\":6730:6736   */\n      dup3\n        /* \"#utility.yul\":6726:6743   */\n      and\n        /* \"#utility.yul\":6716:6743   */\n      swap2\n      pop\n        /* \"#utility.yul\":6672:6753   */\n    tag_185:\n        /* \"#utility.yul\":6800:6802   */\n      0x20\n        /* \"#utility.yul\":6792:6798   */\n      dup3\n        /* \"#utility.yul\":6789:6803   */\n      lt\n        /* \"#utility.yul\":6769:6787   */\n      dup2\n        /* \"#utility.yul\":6766:6804   */\n      sub\n        /* \"#utility.yul\":6763:6847   */\n      tag_186\n      jumpi\n        /* \"#utility.yul\":6819:6837   */\n      tag_187\n      tag_90\n      jump\t// in\n    tag_187:\n        /* \"#utility.yul\":6763:6847   */\n    tag_186:\n        /* \"#utility.yul\":6584:6853   */\n      pop\n        /* \"#utility.yul\":6533:6853   */\n      swap2\n      swap1\n      pop\n      jump\t// out\n        /* \"#utility.yul\":6859:7039   */\n    tag_36:\n        /* \"#utility.yul\":6907:6984   */\n      0x4e487b7100000000000000000000000000000000000000000000000000000000\n        /* \"#utility.yul\":6904:6905   */\n      0x00\n        /* \"#utility.yul\":6897:6985   */\n      mstore\n        /* \"#utility.yul\":7004:7008   */\n      0x32\n        /* \"#utility.yul\":7001:7002   */\n      0x04\n        /* \"#utility.yul\":6994:7009   */\n      mstore\n        /* \"#utility.yul\":7028:7032   */\n      0x24\n        /* \"#utility.yul\":7025:7026   */\n      0x00\n        /* \"#utility.yul\":7018:7033   */\n      revert\n        /* \"#utility.yul\":7045:7225   */\n    tag_91:\n        /* \"#utility.yul\":7093:7170   */\n      0x4e487b7100000000000000000000000000000000000000000000000000000000\n        /* \"#utility.yul\":7090:7091   */\n      0x00\n        /* \"#utility.yul\":7083:7171   */\n      mstore\n        /* \"#utility.yul\":7190:7194   */\n      0x11\n        /* \"#utility.yul\":7187:7188   */\n      0x04\n        /* \"#utility.yul\":7180:7195   */\n      mstore\n        /* \"#utility.yul\":7214:7218   */\n      0x24\n        /* \"#utility.yul\":7211:7212   */\n      0x00\n        /* \"#utility.yul\":7204:7219   */\n      revert\n        /* \"#utility.yul\":7231:7425   */\n    tag_41:\n        /* \"#utility.yul\":7271:7275   */\n      0x00\n        /* \"#utility.yul\":7291:7311   */\n      tag_191\n        /* \"#utility.yul\":7309:7310   */\n      dup3\n        /* \"#utility.yul\":7291:7311   */\n      tag_71\n      jump\t// in\n    tag_191:\n        /* \"#utility.yul\":7286:7311   */\n      swap2\n      pop\n        /* \"#utility.yul\":7325:7345   */\n      tag_192\n        /* \"#utility.yul\":7343:7344   */\n      dup4\n        /* \"#utility.yul\":7325:7345   */\n      tag_71\n      jump\t// in\n    tag_192:\n        /* \"#utility.yul\":7320:7345   */\n      swap3\n      pop\n        /* \"#utility.yul\":7369:7370   */\n      dup3\n        /* \"#utility.yul\":7366:7367   */\n      dup3\n        /* \"#utility.yul\":7362:7371   */\n      sub\n        /* \"#utility.yul\":7354:7371   */\n      swap1\n      pop\n        /* \"#utility.yul\":7393:7394   */\n      dup2\n        /* \"#utility.yul\":7387:7391   */\n      dup2\n        /* \"#utility.yul\":7384:7395   */\n      gt\n        /* \"#utility.yul\":7381:7418   */\n      iszero\n      tag_193\n      jumpi\n        /* \"#utility.yul\":7398:7416   */\n      tag_194\n      tag_91\n      jump\t// in\n    tag_194:\n        /* \"#utility.yul\":7381:7418   */\n    tag_193:\n        /* \"#utility.yul\":7231:7425   */\n      swap3\n      swap2\n      pop\n      pop\n      jump\t// out\n        /* \"#utility.yul\":7431:7572   */\n    tag_92:\n        /* \"#utility.yul\":7480:7484   */\n      0x00\n        /* \"#utility.yul\":7503:7506   */\n      dup2\n        /* \"#utility.yul\":7495:7506   */\n      swap1\n      pop\n        /* \"#utility.yul\":7526:7529   */\n      dup2\n        /* \"#utility.yul\":7523:7524   */\n      0x00\n        /* \"#utility.yul\":7516:7530   */\n      mstore\n        /* \"#utility.yul\":7560:7564   */\n      0x20\n        /* \"#utility.yul\":7557:7558   */\n      0x00\n        /* \"#utility.yul\":7547:7565   */\n      keccak256\n        /* \"#utility.yul\":7539:7565   */\n      swap1\n      pop\n        /* \"#utility.yul\":7431:7572   */\n      swap2\n      swap1\n      pop\n      jump\t// out\n        /* \"#utility.yul\":7578:7671   */\n    tag_93:\n        /* \"#utility.yul\":7615:7621   */\n      0x00\n        /* \"#utility.yul\":7662:7664   */\n      0x20\n        /* \"#utility.yul\":7657:7659   */\n      0x1f\n        /* \"#utility.yul\":7650:7655   */\n      dup4\n        /* \"#utility.yul\":7646:7660   */\n      add\n        /* \"#utility.yul\":7642:7665   */\n      div\n        /* \"#utility.yul\":7632:7665   */\n      swap1\n      pop\n        /* \"#utility.yul\":7578:7671   */\n      swap2\n      swap1\n      pop\n      jump\t// out\n        /* \"#utility.yul\":7677:7784   */\n    tag_94:\n        /* \"#utility.yul\":7721:7729   */\n      0x00\n        /* \"#utility.yul\":7771:7776   */\n      dup3\n        /* \"#utility.yul\":7765:7769   */\n      dup3\n        /* \"#utility.yul\":7761:7777   */\n      shl\n        /* \"#utility.yul\":7740:7777   */\n      swap1\n      pop\n        /* \"#utility.yul\":7677:7784   */\n      swap3\n      swap2\n      pop\n      pop\n      jump\t// out\n        /* \"#utility.yul\":7790:8183   */\n    tag_95:\n        /* \"#utility.yul\":7859:7865   */\n      0x00\n        /* \"#utility.yul\":7909:7910   */\n      0x08\n        /* \"#utility.yul\":7897:7907   */\n      dup4\n        /* \"#utility.yul\":7893:7911   */\n      mul\n        /* \"#utility.yul\":7932:8029   */\n      tag_199\n        /* \"#utility.yul\":7962:8028   */\n      0xffffffffffffffffffffffffffffffffffffffffffffffffffffffffffffffff\n        /* \"#utility.yul\":7951:7960   */\n      dup3\n        /* \"#utility.yul\":7932:8029   */\n      tag_94\n      jump\t// in\n    tag_199:\n        /* \"#utility.yul\":8050:8089   */\n      tag_200\n        /* \"#utility.yul\":8080:8088   */\n      dup7\n        /* \"#utility.yul\":8069:8078   */\n      dup4\n        /* \"#utility.yul\":8050:8089   */\n      tag_94\n      jump\t// in\n    tag_200:\n        /* \"#utility.yul\":8038:8089   */\n      swap6\n      pop\n        /* \"#utility.yul\":8122:8126   */\n      dup1\n        /* \"#utility.yul\":8118:8127   */\n      not\n        /* \"#utility.yul\":8111:8116   */\n      dup5\n        /* \"#utility.yul\":8107:8128   */\n      and\n        /* \"#utility.yul\":8098:8128   */\n      swap4\n      pop\n        /* \"#utility.yul\":8171:8175   */\n      dup1\n        /* \"#utility.yul\":8161:8169   */\n      dup7\n        /* \"#utility.yul\":8157:8176   */\n      and\n        /* \"#utility.yul\":8150:8155   */\n      dup5\n        /* \"#utility.yul\":8147:8177   */\n      or\n        /* \"#utility.yul\":8137:8177   */\n      swap3\n      pop\n        /* \"#utility.yul\":7866:8183   */\n      pop\n      pop\n        /* \"#utility.yul\":7790:8183   */\n      swap4\n      swap3\n      pop\n      pop\n      pop\n      jump\t// out\n        /* \"#utility.yul\":8189:8249   */\n    tag_96:\n        /* \"#utility.yul\":8217:8220   */\n      0x00\n        /* \"#utility.yul\":8238:8243   */\n      dup2\n        /* \"#utility.yul\":8231:8243   */\n      swap1\n      pop\n        /* \"#utility.yul\":8189:8249   */\n      swap2\n      swap1\n      pop\n      jump\t// out\n        /* \"#utility.yul\":8255:8397   */\n    tag_97:\n        /* \"#utility.yul\":8305:8314   */\n      0x00\n        /* \"#utility.yul\":8338:8391   */\n      tag_203\n        /* \"#utility.yul\":8356:8390   */\n      tag_204\n        /* \"#utility.yul\":8365:8389   */\n      tag_205\n        /* \"#utility.yul\":8383:8388   */\n      dup5\n        /* \"#utility.yul\":8365:8389   */\n      tag_71\n      jump\t// in\n    tag_205:\n        /* \"#utility.yul\":8356:8390   */\n      tag_96\n      jump\t// in\n    tag_204:\n        /* \"#utility.yul\":8338:8391   */\n      tag_71\n      jump\t// in\n    tag_203:\n        /* \"#utility.yul\":8325:8391   */\n      swap1\n      pop\n        /* \"#utility.yul\":8255:8397   */\n      swap2\n      swap1\n      pop\n      jump\t// out\n        /* \"#utility.yul\":8403:8478   */\n    tag_98:\n        /* \"#utility.yul\":8446:8449   */\n      0x00\n        /* \"#utility.yul\":8467:8472   */\n      dup2\n        /* \"#utility.yul\":8460:8472   */\n      swap1\n      pop\n        /* \"#utility.yul\":8403:8478   */\n      swap2\n      swap1\n      pop\n      jump\t// out\n        /* \"#utility.yul\":8484:8753   */\n    tag_99:\n        /* \"#utility.yul\":8594:8633   */\n      tag_208\n        /* \"#utility.yul\":8625:8632   */\n      dup4\n        /* \"#utility.yul\":8594:8633   */\n      tag_97\n      jump\t// in\n    tag_208:\n        /* \"#utility.yul\":8655:8746   */\n      tag_209\n        /* \"#utility.yul\":8704:8745   */\n      tag_210\n        /* \"#utility.yul\":8728:8744   */\n      dup3\n        /* \"#utility.yul\":8704:8745   */\n      tag_98\n      jump\t// in\n    tag_210:\n        /* \"#utility.yul\":8696:8702   */\n      dup5\n        /* \"#utility.yul\":8689:8693   */\n      dup5\n        /* \"#utility.yul\":8683:8694   */\n      sload\n        /* \"#utility.yul\":8655:8746   */\n      tag_95\n      jump\t// in\n    tag_209:\n        /* \"#utility.yul\":8649:8653   */\n      dup3\n        /* \"#utility.yul\":8642:8747   */\n      sstore\n        /* \"#utility.yul\":8560:8753   */\n      pop\n        /* \"#utility.yul\":8484:8753   */\n      pop\n      pop\n      pop\n      jump\t// out\n        /* \"#utility.yul\":8759:8832   */\n    tag_100:\n        /* \"#utility.yul\":8804:8807   */\n      0x00\n        /* \"#utility.yul\":8759:8832   */\n      swap1\n      jump\t// out\n        /* \"#utility.yul\":8838:9027   */\n    tag_101:\n        /* \"#utility.yul\":8915:8947   */\n      tag_213\n      tag_100\n      jump\t// in\n    tag_213:\n        /* \"#utility.yul\":8956:9021   */\n      tag_214\n        /* \"#utility.yul\":9014:9020   */\n      dup2\n        /* \"#utility.yul\":9006:9012   */\n      dup5\n        /* \"#utility.yul\":9000:9004   */\n      dup5\n        /* \"#utility.yul\":8956:9021   */\n      tag_99\n      jump\t// in\n    tag_214:\n        /* \"#utility.yul\":8891:9027   */\n      pop\n        /* \"#utility.yul\":8838:9027   */\n      pop\n      pop\n      jump\t// out\n        /* \"#utility.yul\":9033:9219   */\n    tag_102:\n        /* \"#utility.yul\":9093:9213   */\n    tag_216:\n        /* \"#utility.yul\":9110:9113   */\n      dup2\n        /* \"#utility.yul\":9103:9108   */\n      dup2\n        /* \"#utility.yul\":9100:9114   */\n      lt\n        /* \"#utility.yul\":9093:9213   */\n      iszero\n      tag_218\n      jumpi\n        /* \"#utility.yul\":9164:9203   */\n      tag_219\n        /* \"#utility.yul\":9201:9202   */\n      0x00\n        /* \"#utility.yul\":9194:9199   */\n      dup3\n        /* \"#utility.yul\":9164:9203   */\n      tag_101\n      jump\t// in\n    tag_219:\n        /* \"#utility.yul\":9137:9138   */\n      0x01\n        /* \"#utility.yul\":9130:9135   */\n      dup2\n        /* \"#utility.yul\":9126:9139   */\n      add\n        /* \"#utility.yul\":9117:9139   */\n      swap1\n      pop\n        /* \"#utility.yul\":9093:9213   */\n      jump(tag_216)\n    tag_218:\n        /* \"#utility.yul\":9033:9219   */\n      pop\n      pop\n      jump\t// out\n        /* \"#utility.yul\":9225:9768   */\n    tag_103:\n        /* \"#utility.yul\":9326:9328   */\n      0x1f\n        /* \"#utility.yul\":9321:9324   */\n      dup3\n        /* \"#utility.yul\":9318:9329   */\n      gt\n        /* \"#utility.yul\":9315:9761   */\n      iszero\n      tag_221\n      jumpi\n        /* \"#utility.yul\":9360:9398   */\n      tag_222\n        /* \"#utility.yul\":9392:9397   */\n      dup2\n        /* \"#utility.yul\":9360:9398   */\n      tag_92\n      jump\t// in\n    tag_222:\n        /* \"#utility.yul\":9444:9473   */\n      tag_223\n        /* \"#utility.yul\":9462:9472   */\n      dup5\n        /* \"#utility.yul\":9444:9473   */\n      tag_93\n      jump\t// in\n    tag_223:\n        /* \"#utility.yul\":9434:9442   */\n      dup2\n        /* \"#utility.yul\":9430:9474   */\n      add\n        /* \"#utility.yul\":9627:9629   */\n      0x20\n        /* \"#utility.yul\":9615:9625   */\n      dup6\n        /* \"#utility.yul\":9612:9630   */\n      lt\n        /* \"#utility.yul\":9609:9658   */\n      iszero\n      tag_224\n      jumpi\n        /* \"#utility.yul\":9648:9656   */\n      dup2\n        /* \"#utility.yul\":9633:9656   */\n      swap1\n      pop\n        /* \"#utility.yul\":9609:9658   */\n    tag_224:\n        /* \"#utility.yul\":9671:9751   */\n      tag_225\n        /* \"#utility.yul\":9727:9749   */\n      tag_226\n        /* \"#utility.yul\":9745:9748   */\n      dup6\n        /* \"#utility.yul\":9727:9749   */\n      tag_93\n      jump\t// in\n    tag_226:\n        /* \"#utility.yul\":9717:9725   */\n      dup4\n        /* \"#utility.yul\":9713:9750   */\n      add\n        /* \"#utility.yul\":9700:9711   */\n      dup3\n        /* \"#utility.yul\":9671:9751   */\n      tag_102\n      jump\t// in\n    tag_225:\n        /* \"#utility.yul\":9330:9761   */\n      pop\n      pop\n        /* \"#utility.yul\":9315:9761   */\n    tag_221:\n        /* \"#utility.yul\":9225:9768   */\n      pop\n      pop\n      pop\n      jump\t// out\n        /* \"#utility.yul\":9774:9891   */\n    tag_104:\n        /* \"#utility.yul\":9828:9836   */\n      0x00\n        /* \"#utility.yul\":9878:9883   */\n      dup3\n        /* \"#utility.yul\":9872:9876   */\n      dup3\n        /* \"#utility.yul\":9868:9884   */\n      shr\n        /* \"#utility.yul\":9847:9884   */\n      swap1\n      pop\n        /* \"#utility.yul\":9774:9891   */\n      swap3\n      swap2\n      pop\n      pop\n      jump\t// out\n        /* \"#utility.yul\":9897:10066   */\n    tag_105:\n        /* \"#utility.yul\":9941:9947   */\n      0x00\n        /* \"#utility.yul\":9974:10025   */\n      tag_229\n        /* \"#utility.yul\":10022:10023   */\n      0x00\n        /* \"#utility.yul\":10018:10024   */\n      not\n        /* \"#utility.yul\":10010:10015   */\n      dup5\n        /* \"#utility.yul\":10007:10008   */\n      0x08\n        /* \"#utility.yul\":10003:10016   */\n      mul\n        /* \"#utility.yul\":9974:10025   */\n      tag_104\n      jump\t// in\n    tag_229:\n        /* \"#utility.yul\":9970:10026   */\n      not\n        /* \"#utility.yul\":10055:10059   */\n      dup1\n        /* \"#utility.yul\":10049:10053   */\n      dup4\n        /* \"#utility.yul\":10045:10060   */\n      and\n        /* \"#utility.yul\":10035:10060   */\n      swap2\n      pop\n        /* \"#utility.yul\":9948:10066   */\n      pop\n        /* \"#utility.yul\":9897:10066   */\n      swap3\n      swap2\n      pop\n      pop\n      jump\t// out\n        /* \"#utility.yul\":10071:10366   */\n    tag_106:\n        /* \"#utility.yul\":10147:10151   */\n      0x00\n        /* \"#utility.yul\":10293:10322   */\n      tag_231\n        /* \"#utility.yul\":10318:10321   */\n      dup4\n        /* \"#utility.yul\":10312:10316   */\n      dup4\n        /* \"#utility.yul\":10293:10322   */\n      tag_105\n      jump\t// in\n    tag_231:\n        /* \"#utility.yul\":10285:10322   */\n      swap2\n      pop\n        /* \"#utility.yul\":10355:10358   */\n      dup3\n        /* \"#utility.yul\":10352:10353   */\n      0x02\n        /* \"#utility.yul\":10348:10359   */\n      mul\n        /* \"#utility.yul\":10342:10346   */\n      dup3\n        /* \"#utility.yul\":10339:10360   */\n      or\n        /* \"#utility.yul\":10331:10360   */\n      swap1\n      pop\n        /* \"#utility.yul\":10071:10366   */\n      swap3\n      swap2\n      pop\n      pop\n      jump\t// out\n        /* \"#utility.yul\":10371:11766   */\n    tag_46:\n        /* \"#utility.yul\":10488:10525   */\n      tag_233\n        /* \"#utility.yul\":10521:10524   */\n      dup3\n        /* \"#utility.yul\":10488:10525   */\n      tag_75\n      jump\t// in\n    tag_233:\n        /* \"#utility.yul\":10590:10608   */\n      0xffffffffffffffff\n        /* \"#utility.yul\":10582:10588   */\n      dup2\n        /* \"#utility.yul\":10579:10609   */\n      gt\n        /* \"#utility.yul\":10576:10632   */\n      iszero\n      tag_234\n      jumpi\n        /* \"#utility.yul\":10612:10630   */\n      tag_235\n      tag_83\n      jump\t// in\n    tag_235:\n        /* \"#utility.yul\":10576:10632   */\n    tag_234:\n        /* \"#utility.yul\":10656:10694   */\n      tag_236\n        /* \"#utility.yul\":10688:10692   */\n      dup3\n        /* \"#utility.yul\":10682:10693   */\n      sload\n        /* \"#utility.yul\":10656:10694   */\n      tag_28\n      jump\t// in\n    tag_236:\n        /* \"#utility.yul\":10741:10808   */\n      tag_237\n        /* \"#utility.yul\":10801:10807   */\n      dup3\n        /* \"#utility.yul\":10793:10799   */\n      dup3\n        /* \"#utility.yul\":10787:10791   */\n      dup6\n        /* \"#utility.yul\":10741:10808   */\n      tag_103\n      jump\t// in\n    tag_237:\n        /* \"#utility.yul\":10835:10836   */\n      0x00\n        /* \"#utility.yul\":10859:10863   */\n      0x20\n        /* \"#utility.yul\":10846:10863   */\n      swap1\n      pop\n        /* \"#utility.yul\":10891:10893   */\n      0x1f\n        /* \"#utility.yul\":10883:10889   */\n      dup4\n        /* \"#utility.yul\":10880:10894   */\n      gt\n        /* \"#utility.yul\":10908:10909   */\n      0x01\n        /* \"#utility.yul\":10903:11521   */\n      dup2\n      eq\n      tag_239\n      jumpi\n        /* \"#utility.yul\":11565:11566   */\n      0x00\n        /* \"#utility.yul\":11582:11588   */\n      dup5\n        /* \"#utility.yul\":11579:11656   */\n      iszero\n      tag_240\n      jumpi\n        /* \"#utility.yul\":11631:11640   */\n      dup3\n        /* \"#utility.yul\":11626:11629   */\n      dup8\n        /* \"#utility.yul\":11622:11641   */\n      add\n        /* \"#utility.yul\":11616:11642   */\n      mload\n        /* \"#utility.yul\":11607:11642   */\n      swap1\n      pop\n        /* \"#utility.yul\":11579:11656   */\n    tag_240:\n        /* \"#utility.yul\":11682:11749   */\n      tag_241\n        /* \"#utility.yul\":11742:11748   */\n      dup6\n        /* \"#utility.yul\":11735:11740   */\n      dup3\n        /* \"#utility.yul\":11682:11749   */\n      tag_106\n      jump\t// in\n    tag_241:\n        /* \"#utility.yul\":11676:11680   */\n      dup7\n        /* \"#utility.yul\":11669:11750   */\n      sstore\n        /* \"#utility.yul\":11538:11760   */\n      pop\n        /* \"#utility.yul\":10873:11760   */\n      jump(tag_238)\n        /* \"#utility.yul\":10903:11521   */\n    tag_239:\n        /* \"#utility.yul\":10955:10959   */\n      0x1f\n        /* \"#utility.yul\":10951:10960   */\n      not\n        /* \"#utility.yul\":10943:10949   */\n      dup5\n        /* \"#utility.yul\":10939:10961   */\n      and\n        /* \"#utility.yul\":10989:11026   */\n      tag_242\n        /* \"#utility.yul\":11021:11025   */\n      dup7\n        /* \"#utility.yul\":10989:11026   */\n      tag_92\n      jump\t// in\n    tag_242:\n        /* \"#utility.yul\":11048:11049   */\n      0x00\n        /* \"#utility.yul\":11062:11270   */\n    tag_243:\n        /* \"#utility.yul\":11076:11083   */\n      dup3\n        /* \"#utility.yul\":11073:11074   */\n      dup2\n        /* \"#utility.yul\":11070:11084   */\n      lt\n        /* \"#utility.yul\":11062:11270   */\n      iszero\n      tag_245\n      jumpi\n        /* \"#utility.yul\":11155:11164   */\n      dup5\n        /* \"#utility.yul\":11150:11153   */\n      dup10\n        /* \"#utility.yul\":11146:11165   */\n      add\n        /* \"#utility.yul\":11140:11166   */\n      mload\n        /* \"#utility.yul\":11132:11138   */\n      dup3\n        /* \"#utility.yul\":11125:11167   */\n      sstore\n        /* \"#utility.yul\":11206:11207   */\n      0x01\n        /* \"#utility.yul\":11198:11204   */\n      dup3\n        /* \"#utility.yul\":11194:11208   */\n      add\n        /* \"#utility.yul\":11184:11208   */\n      swap2\n      pop\n        /* \"#utility.yul\":11253:11255   */\n      0x20\n        /* \"#utility.yul\":11242:11251   */\n      dup6\n        /* \"#utility.yul\":11238:11256   */\n      add\n        /* \"#utility.yul\":11225:11256   */\n      swap5\n      pop\n        /* \"#utility.yul\":11099:11103   */\n      0x20\n        /* \"#utility.yul\":11096:11097   */\n      dup2\n        /* \"#utility.yul\":11092:11104   */\n      add\n        /* \"#utility.yul\":11087:11104   */\n      swap1\n      pop\n        /* \"#utility.yul\":11062:11270   */\n      jump(tag_243)\n    tag_245:\n        /* \"#utility.yul\":11298:11304   */\n      dup7\n        /* \"#utility.yul\":11289:11296   */\n      dup4\n        /* \"#utility.yul\":11286:11305   */\n      lt\n        /* \"#utility.yul\":11283:11462   */\n      iszero\n      tag_246\n      jumpi\n        /* \"#utility.yul\":11356:11365   */\n      dup5\n        /* \"#utility.yul\":11351:11354   */\n      dup10\n        /* \"#utility.yul\":11347:11366   */\n      add\n        /* \"#utility.yul\":11341:11367   */\n      mload\n        /* \"#utility.yul\":11399:11447   */\n      tag_247\n        /* \"#utility.yul\":11441:11445   */\n      0x1f\n        /* \"#utility.yul\":11433:11439   */\n      dup10\n        /* \"#utility.yul\":11429:11446   */\n      and\n        /* \"#utility.yul\":11418:11427   */\n      dup3\n        /* \"#utility.yul\":11399:11447   */\n      tag_105\n      jump\t// in\n    tag_247:\n        /* \"#utility.yul\":11391:11397   */\n      dup4\n        /* \"#utility.yul\":11384:11448   */\n      sstore\n        /* \"#utility.yul\":11306:11462   */\n      pop\n        /* \"#utility.yul\":11283:11462   */\n    tag_246:\n        /* \"#utility.yul\":11508:11509   */\n      0x01\n        /* \"#utility.yul\":11504:11505   */\n      0x02\n        /* \"#utility.yul\":11496:11502   */\n      dup9\n        /* \"#utility.yul\":11492:11506   */\n      mul\n        /* \"#utility.yul\":11488:11510   */\n      add\n        /* \"#utility.yul\":11482:11486   */\n      dup9\n        /* \"#utility.yul\":11475:11511   */\n      sstore\n        /* \"#utility.yul\":10910:11521   */\n      pop\n      pop\n      pop\n        /* \"#utility.yul\":10873:11760   */\n    tag_238:\n      pop\n        /* \"#utility.yul\":10463:11766   */\n      pop\n      pop\n      pop\n        /* \"#utility.yul\":10371:11766   */\n      pop\n      pop\n      jump\t// out\n        /* \"#utility.yul\":11772:11935   */\n    tag_107:\n        /* \"#utility.yul\":11912:11927   */\n      0x496e76616c696420547765657400000000000000000000000000000000000000\n        /* \"#utility.yul\":11908:11909   */\n      0x00\n        /* \"#utility.yul\":11900:11906   */\n      dup3\n        /* \"#utility.yul\":11896:11910   */\n      add\n        /* \"#utility.yul\":11889:11928   */\n      mstore\n        /* \"#utility.yul\":11772:11935   */\n      pop\n      jump\t// out\n        /* \"#utility.yul\":11941:12307   */\n    tag_108:\n        /* \"#utility.yul\":12083:12086   */\n      0x00\n        /* \"#utility.yul\":12104:12171   */\n      tag_250\n        /* \"#utility.yul\":12168:12170   */\n      0x0d\n        /* \"#utility.yul\":12163:12166   */\n      dup4\n        /* \"#utility.yul\":12104:12171   */\n      tag_76\n      jump\t// in\n    tag_250:\n        /* \"#utility.yul\":12097:12171   */\n      swap2\n      pop\n        /* \"#utility.yul\":12180:12273   */\n      tag_251\n        /* \"#utility.yul\":12269:12272   */\n      dup3\n        /* \"#utility.yul\":12180:12273   */\n      tag_107\n      jump\t// in\n    tag_251:\n        /* \"#utility.yul\":12298:12300   */\n      0x20\n        /* \"#utility.yul\":12293:12296   */\n      dup3\n        /* \"#utility.yul\":12289:12301   */\n      add\n        /* \"#utility.yul\":12282:12301   */\n      swap1\n      pop\n        /* \"#utility.yul\":11941:12307   */\n      swap2\n      swap1\n      pop\n      jump\t// out\n        /* \"#utility.yul\":12313:12732   */\n    tag_51:\n        /* \"#utility.yul\":12479:12483   */\n      0x00\n        /* \"#utility.yul\":12517:12519   */\n      0x20\n        /* \"#utility.yul\":12506:12515   */\n      dup3\n        /* \"#utility.yul\":12502:12520   */\n      add\n        /* \"#utility.yul\":12494:12520   */\n      swap1\n      pop\n        /* \"#utility.yul\":12566:12575   */\n      dup2\n        /* \"#utility.yul\":12560:12564   */\n      dup2\n        /* \"#utility.yul\":12556:12576   */\n      sub\n        /* \"#utility.yul\":12552:12553   */\n      0x00\n        /* \"#utility.yul\":12541:12550   */\n      dup4\n        /* \"#utility.yul\":12537:12554   */\n      add\n        /* \"#utility.yul\":12530:12577   */\n      mstore\n        /* \"#utility.yul\":12594:12725   */\n      tag_253\n        /* \"#utility.yul\":12720:12724   */\n      dup2\n        /* \"#utility.yul\":12594:12725   */\n      tag_108\n      jump\t// in\n    tag_253:\n        /* \"#utility.yul\":12586:12725   */\n      swap1\n      pop\n        /* \"#utility.yul\":12313:12732   */\n      swap2\n      swap1\n      pop\n      jump\t// out\n        /* \"#utility.yul\":12738:12971   */\n    tag_63:\n        /* \"#utility.yul\":12777:12780   */\n      0x00\n        /* \"#utility.yul\":12800:12824   */\n      tag_255\n        /* \"#utility.yul\":12818:12823   */\n      dup3\n        /* \"#utility.yul\":12800:12824   */\n      tag_71\n      jump\t// in\n    tag_255:\n        /* \"#utility.yul\":12791:12824   */\n      swap2\n      pop\n        /* \"#utility.yul\":12846:12912   */\n      0xffffffffffffffffffffffffffffffffffffffffffffffffffffffffffffffff\n        /* \"#utility.yul\":12839:12844   */\n      dup3\n        /* \"#utility.yul\":12836:12913   */\n      sub\n        /* \"#utility.yul\":12833:12936   */\n      tag_256\n      jumpi\n        /* \"#utility.yul\":12916:12934   */\n      tag_257\n      tag_91\n      jump\t// in\n    tag_257:\n        /* \"#utility.yul\":12833:12936   */\n    tag_256:\n        /* \"#utility.yul\":12963:12964   */\n      0x01\n        /* \"#utility.yul\":12956:12961   */\n      dup3\n        /* \"#utility.yul\":12952:12965   */\n      add\n        /* \"#utility.yul\":12945:12965   */\n      swap1\n      pop\n        /* \"#utility.yul\":12738:12971   */\n      swap2\n      swap1\n      pop\n      jump\t// out\n\n    auxdata: 0xa26469706673582212207abc4137717a7ba121f8d575aad33aec0ce7280073fc4844eb3f55de2868ddcb64736f6c634300081a0033\n}\n",
				"bytecode": {
					"linkReferences": {},
					"object": "6080604052348015600e575f80fd5b50610d798061001c5f395ff3fe608060405234801561000f575f80fd5b506004361061004a575f3560e01c806305a1b4a91461004e5780634f3cb3cf1461008157806359ee12bc146100b1578063e4626c8f146100cd575b5f80fd5b6100686004803603810190610063919061069c565b6100e9565b6040516100789493929190610768565b60405180910390f35b61009b6004803603810190610096919061069c565b6101d3565b6040516100a891906107b2565b60405180910390f35b6100cb60048036038101906100c691906108f7565b61023a565b005b6100e760048036038101906100e2919061069c565b6103a1565b005b5f602052815f5260405f208181548110610101575f80fd5b905f5260205f2090600502015f9150915050805f015f9054906101000a900473ffffffffffffffffffffffffffffffffffffffff16908060010180546101469061096b565b80601f01602080910402602001604051908101604052809291908181526020018280546101729061096b565b80156101bd5780601f10610194576101008083540402835291602001916101bd565b820191905f5260205f20905b8154815290600101906020018083116101a057829003601f168201915b5050505050908060020154908060040154905084565b5f805f8473ffffffffffffffffffffffffffffffffffffffff1673ffffffffffffffffffffffffffffffffffffffff1681526020019081526020015f2082815481106102225761022161099b565b5b905f5260205f20906005020160040154905092915050565b5f803373ffffffffffffffffffffffffffffffffffffffff1673ffffffffffffffffffffffffffffffffffffffff1681526020019081526020015f2060018160018154018082558091505003905f5260205f209050505f805f3373ffffffffffffffffffffffffffffffffffffffff1673ffffffffffffffffffffffffffffffffffffffff1681526020019081526020015f2060015f803373ffffffffffffffffffffffffffffffffffffffff1673ffffffffffffffffffffffffffffffffffffffff1681526020019081526020015f208054905061031991906109f5565b8154811061032a5761032961099b565b5b905f5260205f209060050201905033815f015f6101000a81548173ffffffffffffffffffffffffffffffffffffffff021916908373ffffffffffffffffffffffffffffffffffffffff1602179055508181600101908161038a9190610bc5565b505f81600401819055504281600201819055505050565b805f808473ffffffffffffffffffffffffffffffffffffffff1673ffffffffffffffffffffffffffffffffffffffff1681526020019081526020015f20805490501180156103ef57505f8110155b61042e576040517f08c379a000000000000000000000000000000000000000000000000000000000815260040161042590610cde565b60405180910390fd5b5f808373ffffffffffffffffffffffffffffffffffffffff1673ffffffffffffffffffffffffffffffffffffffff1681526020019081526020015f20818154811061047c5761047b61099b565b5b905f5260205f2090600502016003015f3373ffffffffffffffffffffffffffffffffffffffff1673ffffffffffffffffffffffffffffffffffffffff1681526020019081526020015f205f9054906101000a900460ff166105fa5760015f808473ffffffffffffffffffffffffffffffffffffffff1673ffffffffffffffffffffffffffffffffffffffff1681526020019081526020015f2082815481106105275761052661099b565b5b905f5260205f2090600502016003015f3373ffffffffffffffffffffffffffffffffffffffff1673ffffffffffffffffffffffffffffffffffffffff1681526020019081526020015f205f6101000a81548160ff0219169083151502179055505f808373ffffffffffffffffffffffffffffffffffffffff1673ffffffffffffffffffffffffffffffffffffffff1681526020019081526020015f2081815481106105d5576105d461099b565b5b905f5260205f2090600502016004015f8154809291906105f490610cfc565b91905055505b5050565b5f604051905090565b5f80fd5b5f80fd5b5f73ffffffffffffffffffffffffffffffffffffffff82169050919050565b5f6106388261060f565b9050919050565b6106488161062e565b8114610652575f80fd5b50565b5f813590506106638161063f565b92915050565b5f819050919050565b61067b81610669565b8114610685575f80fd5b50565b5f8135905061069681610672565b92915050565b5f80604083850312156106b2576106b1610607565b5b5f6106bf85828601610655565b92505060206106d085828601610688565b9150509250929050565b6106e38161062e565b82525050565b5f81519050919050565b5f82825260208201905092915050565b8281835e5f83830152505050565b5f601f19601f8301169050919050565b5f61072b826106e9565b61073581856106f3565b9350610745818560208601610703565b61074e81610711565b840191505092915050565b61076281610669565b82525050565b5f60808201905061077b5f8301876106da565b818103602083015261078d8186610721565b905061079c6040830185610759565b6107a96060830184610759565b95945050505050565b5f6020820190506107c55f830184610759565b92915050565b5f80fd5b5f80fd5b7f4e487b71000000000000000000000000000000000000000000000000000000005f52604160045260245ffd5b61080982610711565b810181811067ffffffffffffffff82111715610828576108276107d3565b5b80604052505050565b5f61083a6105fe565b90506108468282610800565b919050565b5f67ffffffffffffffff821115610865576108646107d3565b5b61086e82610711565b9050602081019050919050565b828183375f83830152505050565b5f61089b6108968461084b565b610831565b9050828152602081018484840111156108b7576108b66107cf565b5b6108c284828561087b565b509392505050565b5f82601f8301126108de576108dd6107cb565b5b81356108ee848260208601610889565b91505092915050565b5f6020828403121561090c5761090b610607565b5b5f82013567ffffffffffffffff8111156109295761092861060b565b5b610935848285016108ca565b91505092915050565b7f4e487b71000000000000000000000000000000000000000000000000000000005f52602260045260245ffd5b5f600282049050600182168061098257607f821691505b6020821081036109955761099461093e565b5b50919050565b7f4e487b71000000000000000000000000000000000000000000000000000000005f52603260045260245ffd5b7f4e487b71000000000000000000000000000000000000000000000000000000005f52601160045260245ffd5b5f6109ff82610669565b9150610a0a83610669565b9250828203905081811115610a2257610a216109c8565b5b92915050565b5f819050815f5260205f209050919050565b5f6020601f8301049050919050565b5f82821b905092915050565b5f60088302610a847fffffffffffffffffffffffffffffffffffffffffffffffffffffffffffffffff82610a49565b610a8e8683610a49565b95508019841693508086168417925050509392505050565b5f819050919050565b5f610ac9610ac4610abf84610669565b610aa6565b610669565b9050919050565b5f819050919050565b610ae283610aaf565b610af6610aee82610ad0565b848454610a55565b825550505050565b5f90565b610b0a610afe565b610b15818484610ad9565b505050565b5b81811015610b3857610b2d5f82610b02565b600181019050610b1b565b5050565b601f821115610b7d57610b4e81610a28565b610b5784610a3a565b81016020851015610b66578190505b610b7a610b7285610a3a565b830182610b1a565b50505b505050565b5f82821c905092915050565b5f610b9d5f1984600802610b82565b1980831691505092915050565b5f610bb58383610b8e565b9150826002028217905092915050565b610bce826106e9565b67ffffffffffffffff811115610be757610be66107d3565b5b610bf1825461096b565b610bfc828285610b3c565b5f60209050601f831160018114610c2d575f8415610c1b578287015190505b610c258582610baa565b865550610c8c565b601f198416610c3b86610a28565b5f5b82811015610c6257848901518255600182019150602085019450602081019050610c3d565b86831015610c7f5784890151610c7b601f891682610b8e565b8355505b6001600288020188555050505b505050505050565b7f496e76616c6964205477656574000000000000000000000000000000000000005f82015250565b5f610cc8600d836106f3565b9150610cd382610c94565b602082019050919050565b5f6020820190508181035f830152610cf581610cbc565b9050919050565b5f610d0682610669565b91507fffffffffffffffffffffffffffffffffffffffffffffffffffffffffffffffff8203610d3857610d376109c8565b5b60018201905091905056fea26469706673582212207abc4137717a7ba121f8d575aad33aec0ce7280073fc4844eb3f55de2868ddcb64736f6c634300081a0033",
					"opcodes": "PUSH1 0x80 PUSH1 0x40 MSTORE CALLVALUE DUP1 ISZERO PUSH1 0xE JUMPI PUSH0 DUP1 REVERT JUMPDEST POP PUSH2 0xD79 DUP1 PUSH2 0x1C PUSH0 CODECOPY PUSH0 RETURN INVALID PUSH1 0x80 PUSH1 0x40 MSTORE CALLVALUE DUP1 ISZERO PUSH2 0xF JUMPI PUSH0 DUP1 REVERT JUMPDEST POP PUSH1 0x4 CALLDATASIZE LT PUSH2 0x4A JUMPI PUSH0 CALLDATALOAD PUSH1 0xE0 SHR DUP1 PUSH4 0x5A1B4A9 EQ PUSH2 0x4E JUMPI DUP1 PUSH4 0x4F3CB3CF EQ PUSH2 0x81 JUMPI DUP1 PUSH4 0x59EE12BC EQ PUSH2 0xB1 JUMPI DUP1 PUSH4 0xE4626C8F EQ PUSH2 0xCD JUMPI JUMPDEST PUSH0 DUP1 REVERT JUMPDEST PUSH2 0x68 PUSH1 0x4 DUP1 CALLDATASIZE SUB DUP2 ADD SWAP1 PUSH2 0x63 SWAP2 SWAP1 PUSH2 0x69C JUMP JUMPDEST PUSH2 0xE9 JUMP JUMPDEST PUSH1 0x40 MLOAD PUSH2 0x78 SWAP5 SWAP4 SWAP3 SWAP2 SWAP1 PUSH2 0x768 JUMP JUMPDEST PUSH1 0x40 MLOAD DUP1 SWAP2 SUB SWAP1 RETURN JUMPDEST PUSH2 0x9B PUSH1 0x4 DUP1 CALLDATASIZE SUB DUP2 ADD SWAP1 PUSH2 0x96 SWAP2 SWAP1 PUSH2 0x69C JUMP JUMPDEST PUSH2 0x1D3 JUMP JUMPDEST PUSH1 0x40 MLOAD PUSH2 0xA8 SWAP2 SWAP1 PUSH2 0x7B2 JUMP JUMPDEST PUSH1 0x40 MLOAD DUP1 SWAP2 SUB SWAP1 RETURN JUMPDEST PUSH2 0xCB PUSH1 0x4 DUP1 CALLDATASIZE SUB DUP2 ADD SWAP1 PUSH2 0xC6 SWAP2 SWAP1 PUSH2 0x8F7 JUMP JUMPDEST PUSH2 0x23A JUMP JUMPDEST STOP JUMPDEST PUSH2 0xE7 PUSH1 0x4 DUP1 CALLDATASIZE SUB DUP2 ADD SWAP1 PUSH2 0xE2 SWAP2 SWAP1 PUSH2 0x69C JUMP JUMPDEST PUSH2 0x3A1 JUMP JUMPDEST STOP JUMPDEST PUSH0 PUSH1 0x20 MSTORE DUP2 PUSH0 MSTORE PUSH1 0x40 PUSH0 KECCAK256 DUP2 DUP2 SLOAD DUP2 LT PUSH2 0x101 JUMPI PUSH0 DUP1 REVERT JUMPDEST SWAP1 PUSH0 MSTORE PUSH1 0x20 PUSH0 KECCAK256 SWAP1 PUSH1 0x5 MUL ADD PUSH0 SWAP2 POP SWAP2 POP POP DUP1 PUSH0 ADD PUSH0 SWAP1 SLOAD SWAP1 PUSH2 0x100 EXP SWAP1 DIV PUSH20 0xFFFFFFFFFFFFFFFFFFFFFFFFFFFFFFFFFFFFFFFF AND SWAP1 DUP1 PUSH1 0x1 ADD DUP1 SLOAD PUSH2 0x146 SWAP1 PUSH2 0x96B JUMP JUMPDEST DUP1 PUSH1 0x1F ADD PUSH1 0x20 DUP1 SWAP2 DIV MUL PUSH1 0x20 ADD PUSH1 0x40 MLOAD SWAP1 DUP2 ADD PUSH1 0x40 MSTORE DUP1 SWAP3 SWAP2 SWAP1 DUP2 DUP2 MSTORE PUSH1 0x20 ADD DUP3 DUP1 SLOAD PUSH2 0x172 SWAP1 PUSH2 0x96B JUMP JUMPDEST DUP1 ISZERO PUSH2 0x1BD JUMPI DUP1 PUSH1 0x1F LT PUSH2 0x194 JUMPI PUSH2 0x100 DUP1 DUP4 SLOAD DIV MUL DUP4 MSTORE SWAP2 PUSH1 0x20 ADD SWAP2 PUSH2 0x1BD JUMP JUMPDEST DUP3 ADD SWAP2 SWAP1 PUSH0 MSTORE PUSH1 0x20 PUSH0 KECCAK256 SWAP1 JUMPDEST DUP2 SLOAD DUP2 MSTORE SWAP1 PUSH1 0x1 ADD SWAP1 PUSH1 0x20 ADD DUP1 DUP4 GT PUSH2 0x1A0 JUMPI DUP3 SWAP1 SUB PUSH1 0x1F AND DUP3 ADD SWAP2 JUMPDEST POP POP POP POP POP SWAP1 DUP1 PUSH1 0x2 ADD SLOAD SWAP1 DUP1 PUSH1 0x4 ADD SLOAD SWAP1 POP DUP5 JUMP JUMPDEST PUSH0 DUP1 PUSH0 DUP5 PUSH20 0xFFFFFFFFFFFFFFFFFFFFFFFFFFFFFFFFFFFFFFFF AND PUSH20 0xFFFFFFFFFFFFFFFFFFFFFFFFFFFFFFFFFFFFFFFF AND DUP2 MSTORE PUSH1 0x20 ADD SWAP1 DUP2 MSTORE PUSH1 0x20 ADD PUSH0 KECCAK256 DUP3 DUP2 SLOAD DUP2 LT PUSH2 0x222 JUMPI PUSH2 0x221 PUSH2 0x99B JUMP JUMPDEST JUMPDEST SWAP1 PUSH0 MSTORE PUSH1 0x20 PUSH0 KECCAK256 SWAP1 PUSH1 0x5 MUL ADD PUSH1 0x4 ADD SLOAD SWAP1 POP SWAP3 SWAP2 POP POP JUMP JUMPDEST PUSH0 DUP1 CALLER PUSH20 0xFFFFFFFFFFFFFFFFFFFFFFFFFFFFFFFFFFFFFFFF AND PUSH20 0xFFFFFFFFFFFFFFFFFFFFFFFFFFFFFFFFFFFFFFFF AND DUP2 MSTORE PUSH1 0x20 ADD SWAP1 DUP2 MSTORE PUSH1 0x20 ADD PUSH0 KECCAK256 PUSH1 0x1 DUP2 PUSH1 0x1 DUP2 SLOAD ADD DUP1 DUP3 SSTORE DUP1 SWAP2 POP POP SUB SWAP1 PUSH0 MSTORE PUSH1 0x20 PUSH0 KECCAK256 SWAP1 POP POP PUSH0 DUP1 PUSH0 CALLER PUSH20 0xFFFFFFFFFFFFFFFFFFFFFFFFFFFFFFFFFFFFFFFF AND PUSH20 0xFFFFFFFFFFFFFFFFFFFFFFFFFFFFFFFFFFFFFFFF AND DUP2 MSTORE PUSH1 0x20 ADD SWAP1 DUP2 MSTORE PUSH1 0x20 ADD PUSH0 KECCAK256 PUSH1 0x1 PUSH0 DUP1 CALLER PUSH20 0xFFFFFFFFFFFFFFFFFFFFFFFFFFFFFFFFFFFFFFFF AND PUSH20 0xFFFFFFFFFFFFFFFFFFFFFFFFFFFFFFFFFFFFFFFF AND DUP2 MSTORE PUSH1 0x20 ADD SWAP1 DUP2 MSTORE PUSH1 0x20 ADD PUSH0 KECCAK256 DUP1 SLOAD SWAP1 POP PUSH2 0x319 SWAP2 SWAP1 PUSH2 0x9F5 JUMP JUMPDEST DUP2 SLOAD DUP2 LT PUSH2 0x32A JUMPI PUSH2 0x329 PUSH2 0x99B JUMP JUMPDEST JUMPDEST SWAP1 PUSH0 MSTORE PUSH1 0x20 PUSH0 KECCAK256 SWAP1 PUSH1 0x5 MUL ADD SWAP1 POP CALLER DUP2 PUSH0 ADD PUSH0 PUSH2 0x100 EXP DUP2 SLOAD DUP2 PUSH20 0xFFFFFFFFFFFFFFFFFFFFFFFFFFFFFFFFFFFFFFFF MUL NOT AND SWAP1 DUP4 PUSH20 0xFFFFFFFFFFFFFFFFFFFFFFFFFFFFFFFFFFFFFFFF AND MUL OR SWAP1 SSTORE POP DUP2 DUP2 PUSH1 0x1 ADD SWAP1 DUP2 PUSH2 0x38A SWAP2 SWAP1 PUSH2 0xBC5 JUMP JUMPDEST POP PUSH0 DUP2 PUSH1 0x4 ADD DUP2 SWAP1 SSTORE POP TIMESTAMP DUP2 PUSH1 0x2 ADD DUP2 SWAP1 SSTORE POP POP POP JUMP JUMPDEST DUP1 PUSH0 DUP1 DUP5 PUSH20 0xFFFFFFFFFFFFFFFFFFFFFFFFFFFFFFFFFFFFFFFF AND PUSH20 0xFFFFFFFFFFFFFFFFFFFFFFFFFFFFFFFFFFFFFFFF AND DUP2 MSTORE PUSH1 0x20 ADD SWAP1 DUP2 MSTORE PUSH1 0x20 ADD PUSH0 KECCAK256 DUP1 SLOAD SWAP1 POP GT DUP1 ISZERO PUSH2 0x3EF JUMPI POP PUSH0 DUP2 LT ISZERO JUMPDEST PUSH2 0x42E JUMPI PUSH1 0x40 MLOAD PUSH32 0x8C379A000000000000000000000000000000000000000000000000000000000 DUP2 MSTORE PUSH1 0x4 ADD PUSH2 0x425 SWAP1 PUSH2 0xCDE JUMP JUMPDEST PUSH1 0x40 MLOAD DUP1 SWAP2 SUB SWAP1 REVERT JUMPDEST PUSH0 DUP1 DUP4 PUSH20 0xFFFFFFFFFFFFFFFFFFFFFFFFFFFFFFFFFFFFFFFF AND PUSH20 0xFFFFFFFFFFFFFFFFFFFFFFFFFFFFFFFFFFFFFFFF AND DUP2 MSTORE PUSH1 0x20 ADD SWAP1 DUP2 MSTORE PUSH1 0x20 ADD PUSH0 KECCAK256 DUP2 DUP2 SLOAD DUP2 LT PUSH2 0x47C JUMPI PUSH2 0x47B PUSH2 0x99B JUMP JUMPDEST JUMPDEST SWAP1 PUSH0 MSTORE PUSH1 0x20 PUSH0 KECCAK256 SWAP1 PUSH1 0x5 MUL ADD PUSH1 0x3 ADD PUSH0 CALLER PUSH20 0xFFFFFFFFFFFFFFFFFFFFFFFFFFFFFFFFFFFFFFFF AND PUSH20 0xFFFFFFFFFFFFFFFFFFFFFFFFFFFFFFFFFFFFFFFF AND DUP2 MSTORE PUSH1 0x20 ADD SWAP1 DUP2 MSTORE PUSH1 0x20 ADD PUSH0 KECCAK256 PUSH0 SWAP1 SLOAD SWAP1 PUSH2 0x100 EXP SWAP1 DIV PUSH1 0xFF AND PUSH2 0x5FA JUMPI PUSH1 0x1 PUSH0 DUP1 DUP5 PUSH20 0xFFFFFFFFFFFFFFFFFFFFFFFFFFFFFFFFFFFFFFFF AND PUSH20 0xFFFFFFFFFFFFFFFFFFFFFFFFFFFFFFFFFFFFFFFF AND DUP2 MSTORE PUSH1 0x20 ADD SWAP1 DUP2 MSTORE PUSH1 0x20 ADD PUSH0 KECCAK256 DUP3 DUP2 SLOAD DUP2 LT PUSH2 0x527 JUMPI PUSH2 0x526 PUSH2 0x99B JUMP JUMPDEST JUMPDEST SWAP1 PUSH0 MSTORE PUSH1 0x20 PUSH0 KECCAK256 SWAP1 PUSH1 0x5 MUL ADD PUSH1 0x3 ADD PUSH0 CALLER PUSH20 0xFFFFFFFFFFFFFFFFFFFFFFFFFFFFFFFFFFFFFFFF AND PUSH20 0xFFFFFFFFFFFFFFFFFFFFFFFFFFFFFFFFFFFFFFFF AND DUP2 MSTORE PUSH1 0x20 ADD SWAP1 DUP2 MSTORE PUSH1 0x20 ADD PUSH0 KECCAK256 PUSH0 PUSH2 0x100 EXP DUP2 SLOAD DUP2 PUSH1 0xFF MUL NOT AND SWAP1 DUP4 ISZERO ISZERO MUL OR SWAP1 SSTORE POP PUSH0 DUP1 DUP4 PUSH20 0xFFFFFFFFFFFFFFFFFFFFFFFFFFFFFFFFFFFFFFFF AND PUSH20 0xFFFFFFFFFFFFFFFFFFFFFFFFFFFFFFFFFFFFFFFF AND DUP2 MSTORE PUSH1 0x20 ADD SWAP1 DUP2 MSTORE PUSH1 0x20 ADD PUSH0 KECCAK256 DUP2 DUP2 SLOAD DUP2 LT PUSH2 0x5D5 JUMPI PUSH2 0x5D4 PUSH2 0x99B JUMP JUMPDEST JUMPDEST SWAP1 PUSH0 MSTORE PUSH1 0x20 PUSH0 KECCAK256 SWAP1 PUSH1 0x5 MUL ADD PUSH1 0x4 ADD PUSH0 DUP2 SLOAD DUP1 SWAP3 SWAP2 SWAP1 PUSH2 0x5F4 SWAP1 PUSH2 0xCFC JUMP JUMPDEST SWAP2 SWAP1 POP SSTORE POP JUMPDEST POP POP JUMP JUMPDEST PUSH0 PUSH1 0x40 MLOAD SWAP1 POP SWAP1 JUMP JUMPDEST PUSH0 DUP1 REVERT JUMPDEST PUSH0 DUP1 REVERT JUMPDEST PUSH0 PUSH20 0xFFFFFFFFFFFFFFFFFFFFFFFFFFFFFFFFFFFFFFFF DUP3 AND SWAP1 POP SWAP2 SWAP1 POP JUMP JUMPDEST PUSH0 PUSH2 0x638 DUP3 PUSH2 0x60F JUMP JUMPDEST SWAP1 POP SWAP2 SWAP1 POP JUMP JUMPDEST PUSH2 0x648 DUP2 PUSH2 0x62E JUMP JUMPDEST DUP2 EQ PUSH2 0x652 JUMPI PUSH0 DUP1 REVERT JUMPDEST POP JUMP JUMPDEST PUSH0 DUP2 CALLDATALOAD SWAP1 POP PUSH2 0x663 DUP2 PUSH2 0x63F JUMP JUMPDEST SWAP3 SWAP2 POP POP JUMP JUMPDEST PUSH0 DUP2 SWAP1 POP SWAP2 SWAP1 POP JUMP JUMPDEST PUSH2 0x67B DUP2 PUSH2 0x669 JUMP JUMPDEST DUP2 EQ PUSH2 0x685 JUMPI PUSH0 DUP1 REVERT JUMPDEST POP JUMP JUMPDEST PUSH0 DUP2 CALLDATALOAD SWAP1 POP PUSH2 0x696 DUP2 PUSH2 0x672 JUMP JUMPDEST SWAP3 SWAP2 POP POP JUMP JUMPDEST PUSH0 DUP1 PUSH1 0x40 DUP4 DUP6 SUB SLT ISZERO PUSH2 0x6B2 JUMPI PUSH2 0x6B1 PUSH2 0x607 JUMP JUMPDEST JUMPDEST PUSH0 PUSH2 0x6BF DUP6 DUP3 DUP7 ADD PUSH2 0x655 JUMP JUMPDEST SWAP3 POP POP PUSH1 0x20 PUSH2 0x6D0 DUP6 DUP3 DUP7 ADD PUSH2 0x688 JUMP JUMPDEST SWAP2 POP POP SWAP3 POP SWAP3 SWAP1 POP JUMP JUMPDEST PUSH2 0x6E3 DUP2 PUSH2 0x62E JUMP JUMPDEST DUP3 MSTORE POP POP JUMP JUMPDEST PUSH0 DUP2 MLOAD SWAP1 POP SWAP2 SWAP1 POP JUMP JUMPDEST PUSH0 DUP3 DUP3 MSTORE PUSH1 0x20 DUP3 ADD SWAP1 POP SWAP3 SWAP2 POP POP JUMP JUMPDEST DUP3 DUP2 DUP4 MCOPY PUSH0 DUP4 DUP4 ADD MSTORE POP POP POP JUMP JUMPDEST PUSH0 PUSH1 0x1F NOT PUSH1 0x1F DUP4 ADD AND SWAP1 POP SWAP2 SWAP1 POP JUMP JUMPDEST PUSH0 PUSH2 0x72B DUP3 PUSH2 0x6E9 JUMP JUMPDEST PUSH2 0x735 DUP2 DUP6 PUSH2 0x6F3 JUMP JUMPDEST SWAP4 POP PUSH2 0x745 DUP2 DUP6 PUSH1 0x20 DUP7 ADD PUSH2 0x703 JUMP JUMPDEST PUSH2 0x74E DUP2 PUSH2 0x711 JUMP JUMPDEST DUP5 ADD SWAP2 POP POP SWAP3 SWAP2 POP POP JUMP JUMPDEST PUSH2 0x762 DUP2 PUSH2 0x669 JUMP JUMPDEST DUP3 MSTORE POP POP JUMP JUMPDEST PUSH0 PUSH1 0x80 DUP3 ADD SWAP1 POP PUSH2 0x77B PUSH0 DUP4 ADD DUP8 PUSH2 0x6DA JUMP JUMPDEST DUP2 DUP2 SUB PUSH1 0x20 DUP4 ADD MSTORE PUSH2 0x78D DUP2 DUP7 PUSH2 0x721 JUMP JUMPDEST SWAP1 POP PUSH2 0x79C PUSH1 0x40 DUP4 ADD DUP6 PUSH2 0x759 JUMP JUMPDEST PUSH2 0x7A9 PUSH1 0x60 DUP4 ADD DUP5 PUSH2 0x759 JUMP JUMPDEST SWAP6 SWAP5 POP POP POP POP POP JUMP JUMPDEST PUSH0 PUSH1 0x20 DUP3 ADD SWAP1 POP PUSH2 0x7C5 PUSH0 DUP4 ADD DUP5 PUSH2 0x759 JUMP JUMPDEST SWAP3 SWAP2 POP POP JUMP JUMPDEST PUSH0 DUP1 REVERT JUMPDEST PUSH0 DUP1 REVERT JUMPDEST PUSH32 0x4E487B7100000000000000000000000000000000000000000000000000000000 PUSH0 MSTORE PUSH1 0x41 PUSH1 0x4 MSTORE PUSH1 0x24 PUSH0 REVERT JUMPDEST PUSH2 0x809 DUP3 PUSH2 0x711 JUMP JUMPDEST DUP2 ADD DUP2 DUP2 LT PUSH8 0xFFFFFFFFFFFFFFFF DUP3 GT OR ISZERO PUSH2 0x828 JUMPI PUSH2 0x827 PUSH2 0x7D3 JUMP JUMPDEST JUMPDEST DUP1 PUSH1 0x40 MSTORE POP POP POP JUMP JUMPDEST PUSH0 PUSH2 0x83A PUSH2 0x5FE JUMP JUMPDEST SWAP1 POP PUSH2 0x846 DUP3 DUP3 PUSH2 0x800 JUMP JUMPDEST SWAP2 SWAP1 POP JUMP JUMPDEST PUSH0 PUSH8 0xFFFFFFFFFFFFFFFF DUP3 GT ISZERO PUSH2 0x865 JUMPI PUSH2 0x864 PUSH2 0x7D3 JUMP JUMPDEST JUMPDEST PUSH2 0x86E DUP3 PUSH2 0x711 JUMP JUMPDEST SWAP1 POP PUSH1 0x20 DUP2 ADD SWAP1 POP SWAP2 SWAP1 POP JUMP JUMPDEST DUP3 DUP2 DUP4 CALLDATACOPY PUSH0 DUP4 DUP4 ADD MSTORE POP POP POP JUMP JUMPDEST PUSH0 PUSH2 0x89B PUSH2 0x896 DUP5 PUSH2 0x84B JUMP JUMPDEST PUSH2 0x831 JUMP JUMPDEST SWAP1 POP DUP3 DUP2 MSTORE PUSH1 0x20 DUP2 ADD DUP5 DUP5 DUP5 ADD GT ISZERO PUSH2 0x8B7 JUMPI PUSH2 0x8B6 PUSH2 0x7CF JUMP JUMPDEST JUMPDEST PUSH2 0x8C2 DUP5 DUP3 DUP6 PUSH2 0x87B JUMP JUMPDEST POP SWAP4 SWAP3 POP POP POP JUMP JUMPDEST PUSH0 DUP3 PUSH1 0x1F DUP4 ADD SLT PUSH2 0x8DE JUMPI PUSH2 0x8DD PUSH2 0x7CB JUMP JUMPDEST JUMPDEST DUP2 CALLDATALOAD PUSH2 0x8EE DUP5 DUP3 PUSH1 0x20 DUP7 ADD PUSH2 0x889 JUMP JUMPDEST SWAP2 POP POP SWAP3 SWAP2 POP POP JUMP JUMPDEST PUSH0 PUSH1 0x20 DUP3 DUP5 SUB SLT ISZERO PUSH2 0x90C JUMPI PUSH2 0x90B PUSH2 0x607 JUMP JUMPDEST JUMPDEST PUSH0 DUP3 ADD CALLDATALOAD PUSH8 0xFFFFFFFFFFFFFFFF DUP2 GT ISZERO PUSH2 0x929 JUMPI PUSH2 0x928 PUSH2 0x60B JUMP JUMPDEST JUMPDEST PUSH2 0x935 DUP5 DUP3 DUP6 ADD PUSH2 0x8CA JUMP JUMPDEST SWAP2 POP POP SWAP3 SWAP2 POP POP JUMP JUMPDEST PUSH32 0x4E487B7100000000000000000000000000000000000000000000000000000000 PUSH0 MSTORE PUSH1 0x22 PUSH1 0x4 MSTORE PUSH1 0x24 PUSH0 REVERT JUMPDEST PUSH0 PUSH1 0x2 DUP3 DIV SWAP1 POP PUSH1 0x1 DUP3 AND DUP1 PUSH2 0x982 JUMPI PUSH1 0x7F DUP3 AND SWAP2 POP JUMPDEST PUSH1 0x20 DUP3 LT DUP2 SUB PUSH2 0x995 JUMPI PUSH2 0x994 PUSH2 0x93E JUMP JUMPDEST JUMPDEST POP SWAP2 SWAP1 POP JUMP JUMPDEST PUSH32 0x4E487B7100000000000000000000000000000000000000000000000000000000 PUSH0 MSTORE PUSH1 0x32 PUSH1 0x4 MSTORE PUSH1 0x24 PUSH0 REVERT JUMPDEST PUSH32 0x4E487B7100000000000000000000000000000000000000000000000000000000 PUSH0 MSTORE PUSH1 0x11 PUSH1 0x4 MSTORE PUSH1 0x24 PUSH0 REVERT JUMPDEST PUSH0 PUSH2 0x9FF DUP3 PUSH2 0x669 JUMP JUMPDEST SWAP2 POP PUSH2 0xA0A DUP4 PUSH2 0x669 JUMP JUMPDEST SWAP3 POP DUP3 DUP3 SUB SWAP1 POP DUP2 DUP2 GT ISZERO PUSH2 0xA22 JUMPI PUSH2 0xA21 PUSH2 0x9C8 JUMP JUMPDEST JUMPDEST SWAP3 SWAP2 POP POP JUMP JUMPDEST PUSH0 DUP2 SWAP1 POP DUP2 PUSH0 MSTORE PUSH1 0x20 PUSH0 KECCAK256 SWAP1 POP SWAP2 SWAP1 POP JUMP JUMPDEST PUSH0 PUSH1 0x20 PUSH1 0x1F DUP4 ADD DIV SWAP1 POP SWAP2 SWAP1 POP JUMP JUMPDEST PUSH0 DUP3 DUP3 SHL SWAP1 POP SWAP3 SWAP2 POP POP JUMP JUMPDEST PUSH0 PUSH1 0x8 DUP4 MUL PUSH2 0xA84 PUSH32 0xFFFFFFFFFFFFFFFFFFFFFFFFFFFFFFFFFFFFFFFFFFFFFFFFFFFFFFFFFFFFFFFF DUP3 PUSH2 0xA49 JUMP JUMPDEST PUSH2 0xA8E DUP7 DUP4 PUSH2 0xA49 JUMP JUMPDEST SWAP6 POP DUP1 NOT DUP5 AND SWAP4 POP DUP1 DUP7 AND DUP5 OR SWAP3 POP POP POP SWAP4 SWAP3 POP POP POP JUMP JUMPDEST PUSH0 DUP2 SWAP1 POP SWAP2 SWAP1 POP JUMP JUMPDEST PUSH0 PUSH2 0xAC9 PUSH2 0xAC4 PUSH2 0xABF DUP5 PUSH2 0x669 JUMP JUMPDEST PUSH2 0xAA6 JUMP JUMPDEST PUSH2 0x669 JUMP JUMPDEST SWAP1 POP SWAP2 SWAP1 POP JUMP JUMPDEST PUSH0 DUP2 SWAP1 POP SWAP2 SWAP1 POP JUMP JUMPDEST PUSH2 0xAE2 DUP4 PUSH2 0xAAF JUMP JUMPDEST PUSH2 0xAF6 PUSH2 0xAEE DUP3 PUSH2 0xAD0 JUMP JUMPDEST DUP5 DUP5 SLOAD PUSH2 0xA55 JUMP JUMPDEST DUP3 SSTORE POP POP POP POP JUMP JUMPDEST PUSH0 SWAP1 JUMP JUMPDEST PUSH2 0xB0A PUSH2 0xAFE JUMP JUMPDEST PUSH2 0xB15 DUP2 DUP5 DUP5 PUSH2 0xAD9 JUMP JUMPDEST POP POP POP JUMP JUMPDEST JUMPDEST DUP2 DUP2 LT ISZERO PUSH2 0xB38 JUMPI PUSH2 0xB2D PUSH0 DUP3 PUSH2 0xB02 JUMP JUMPDEST PUSH1 0x1 DUP2 ADD SWAP1 POP PUSH2 0xB1B JUMP JUMPDEST POP POP JUMP JUMPDEST PUSH1 0x1F DUP3 GT ISZERO PUSH2 0xB7D JUMPI PUSH2 0xB4E DUP2 PUSH2 0xA28 JUMP JUMPDEST PUSH2 0xB57 DUP5 PUSH2 0xA3A JUMP JUMPDEST DUP2 ADD PUSH1 0x20 DUP6 LT ISZERO PUSH2 0xB66 JUMPI DUP2 SWAP1 POP JUMPDEST PUSH2 0xB7A PUSH2 0xB72 DUP6 PUSH2 0xA3A JUMP JUMPDEST DUP4 ADD DUP3 PUSH2 0xB1A JUMP JUMPDEST POP POP JUMPDEST POP POP POP JUMP JUMPDEST PUSH0 DUP3 DUP3 SHR SWAP1 POP SWAP3 SWAP2 POP POP JUMP JUMPDEST PUSH0 PUSH2 0xB9D PUSH0 NOT DUP5 PUSH1 0x8 MUL PUSH2 0xB82 JUMP JUMPDEST NOT DUP1 DUP4 AND SWAP2 POP POP SWAP3 SWAP2 POP POP JUMP JUMPDEST PUSH0 PUSH2 0xBB5 DUP4 DUP4 PUSH2 0xB8E JUMP JUMPDEST SWAP2 POP DUP3 PUSH1 0x2 MUL DUP3 OR SWAP1 POP SWAP3 SWAP2 POP POP JUMP JUMPDEST PUSH2 0xBCE DUP3 PUSH2 0x6E9 JUMP JUMPDEST PUSH8 0xFFFFFFFFFFFFFFFF DUP2 GT ISZERO PUSH2 0xBE7 JUMPI PUSH2 0xBE6 PUSH2 0x7D3 JUMP JUMPDEST JUMPDEST PUSH2 0xBF1 DUP3 SLOAD PUSH2 0x96B JUMP JUMPDEST PUSH2 0xBFC DUP3 DUP3 DUP6 PUSH2 0xB3C JUMP JUMPDEST PUSH0 PUSH1 0x20 SWAP1 POP PUSH1 0x1F DUP4 GT PUSH1 0x1 DUP2 EQ PUSH2 0xC2D JUMPI PUSH0 DUP5 ISZERO PUSH2 0xC1B JUMPI DUP3 DUP8 ADD MLOAD SWAP1 POP JUMPDEST PUSH2 0xC25 DUP6 DUP3 PUSH2 0xBAA JUMP JUMPDEST DUP7 SSTORE POP PUSH2 0xC8C JUMP JUMPDEST PUSH1 0x1F NOT DUP5 AND PUSH2 0xC3B DUP7 PUSH2 0xA28 JUMP JUMPDEST PUSH0 JUMPDEST DUP3 DUP2 LT ISZERO PUSH2 0xC62 JUMPI DUP5 DUP10 ADD MLOAD DUP3 SSTORE PUSH1 0x1 DUP3 ADD SWAP2 POP PUSH1 0x20 DUP6 ADD SWAP5 POP PUSH1 0x20 DUP2 ADD SWAP1 POP PUSH2 0xC3D JUMP JUMPDEST DUP7 DUP4 LT ISZERO PUSH2 0xC7F JUMPI DUP5 DUP10 ADD MLOAD PUSH2 0xC7B PUSH1 0x1F DUP10 AND DUP3 PUSH2 0xB8E JUMP JUMPDEST DUP4 SSTORE POP JUMPDEST PUSH1 0x1 PUSH1 0x2 DUP9 MUL ADD DUP9 SSTORE POP POP POP JUMPDEST POP POP POP POP POP POP JUMP JUMPDEST PUSH32 0x496E76616C696420547765657400000000000000000000000000000000000000 PUSH0 DUP3 ADD MSTORE POP JUMP JUMPDEST PUSH0 PUSH2 0xCC8 PUSH1 0xD DUP4 PUSH2 0x6F3 JUMP JUMPDEST SWAP2 POP PUSH2 0xCD3 DUP3 PUSH2 0xC94 JUMP JUMPDEST PUSH1 0x20 DUP3 ADD SWAP1 POP SWAP2 SWAP1 POP JUMP JUMPDEST PUSH0 PUSH1 0x20 DUP3 ADD SWAP1 POP DUP2 DUP2 SUB PUSH0 DUP4 ADD MSTORE PUSH2 0xCF5 DUP2 PUSH2 0xCBC JUMP JUMPDEST SWAP1 POP SWAP2 SWAP1 POP JUMP JUMPDEST PUSH0 PUSH2 0xD06 DUP3 PUSH2 0x669 JUMP JUMPDEST SWAP2 POP PUSH32 0xFFFFFFFFFFFFFFFFFFFFFFFFFFFFFFFFFFFFFFFFFFFFFFFFFFFFFFFFFFFFFFFF DUP3 SUB PUSH2 0xD38 JUMPI PUSH2 0xD37 PUSH2 0x9C8 JUMP JUMPDEST JUMPDEST PUSH1 0x1 DUP3 ADD SWAP1 POP SWAP2 SWAP1 POP JUMP INVALID LOG2 PUSH5 0x6970667358 0x22 SLT KECCAK256 PUSH27 0xBC4137717A7BA121F8D575AAD33AEC0CE7280073FC4844EB3F55DE 0x28 PUSH9 0xDDCB64736F6C634300 ADDMOD BYTE STOP CALLER "
				},
				"gasEstimates": {
					"creation": {
						"codeDepositCost": "689800",
						"executionCost": "719",
						"totalCost": "690519"
					},
					"external": {
						"addTweet(string)": "infinite",
						"getLikes(address,uint256)": "infinite",
						"like(address,uint256)": "infinite",
						"tweets(address,uint256)": "infinite"
					}
				},
				"methodIdentifiers": {
					"addTweet(string)": "59ee12bc",
					"getLikes(address,uint256)": "4f3cb3cf",
					"like(address,uint256)": "e4626c8f",
					"tweets(address,uint256)": "05a1b4a9"
				}
			},
			"storageLayout": {
				"storage": [
					{
						"astId": 7,
						"contract": "contracts/test_viewing.sol:test_viewing",
						"label": "tweets",
						"offset": 0,
						"slot": "0",
						"type": "t_mapping(t_address,t_array(t_struct(Tweet)20_storage)dyn_storage)"
					}
				],
				"types": {
					"t_address": {
						"encoding": "inplace",
						"label": "address",
						"numberOfBytes": "20"
					},
					"t_array(t_struct(Tweet)20_storage)dyn_storage": {
						"base": "t_struct(Tweet)20_storage",
						"encoding": "dynamic_array",
						"label": "struct test_viewing.Tweet[]",
						"numberOfBytes": "32"
					},
					"t_bool": {
						"encoding": "inplace",
						"label": "bool",
						"numberOfBytes": "1"
					},
					"t_mapping(t_address,t_array(t_struct(Tweet)20_storage)dyn_storage)": {
						"encoding": "mapping",
						"key": "t_address",
						"label": "mapping(address => struct test_viewing.Tweet[])",
						"numberOfBytes": "32",
						"value": "t_array(t_struct(Tweet)20_storage)dyn_storage"
					},
					"t_mapping(t_address,t_bool)": {
						"encoding": "mapping",
						"key": "t_address",
						"label": "mapping(address => bool)",
						"numberOfBytes": "32",
						"value": "t_bool"
					},
					"t_string_storage": {
						"encoding": "bytes",
						"label": "string",
						"numberOfBytes": "32"
					},
					"t_struct(Tweet)20_storage": {
						"encoding": "inplace",
						"label": "struct test_viewing.Tweet",
						"members": [
							{
								"astId": 9,
								"contract": "contracts/test_viewing.sol:test_viewing",
								"label": "author",
								"offset": 0,
								"slot": "0",
								"type": "t_address"
							},
							{
								"astId": 11,
								"contract": "contracts/test_viewing.sol:test_viewing",
								"label": "content",
								"offset": 0,
								"slot": "1",
								"type": "t_string_storage"
							},
							{
								"astId": 13,
								"contract": "contracts/test_viewing.sol:test_viewing",
								"label": "timestamp",
								"offset": 0,
								"slot": "2",
								"type": "t_uint256"
							},
							{
								"astId": 17,
								"contract": "contracts/test_viewing.sol:test_viewing",
								"label": "likeSet",
								"offset": 0,
								"slot": "3",
								"type": "t_mapping(t_address,t_bool)"
							},
							{
								"astId": 19,
								"contract": "contracts/test_viewing.sol:test_viewing",
								"label": "likes",
								"offset": 0,
								"slot": "4",
								"type": "t_uint256"
							}
						],
						"numberOfBytes": "160"
					},
					"t_uint256": {
						"encoding": "inplace",
						"label": "uint256",
						"numberOfBytes": "32"
					}
				}
			},
			"userdoc": {
				"kind": "user",
				"methods": {},
				"version": 1
			}
		}
	}
}